:020000040001F9
:10B00000302F0020D5B00100EFB00100F1B00100F9
:10B010000000000000000000000000000000000030
:10B02000000000000000000000000000F3B001007C
:10B030000000000000000000F5B00100F7B00100C2
:10B04000E9B40100F9B0010039B601005DB50100B5
:10B05000F9B00100000000002DB3010049B2010069
:10B06000F9B00100F9B00100F9B00100F9B0010038
:10B07000F9B00100F9B00100F9B00100F9B0010028
:10B08000F9B001003DB50100F9B00100F9B00100CF
:10B0900071B50100F9B0010079B50100F9B0010006
:10B0A000F9B00100F9B0010000000000000000004C
:10B0B0000000000000000000000000000000000090
:10B0C0000348854600F08CF80048004721D1010074
:10B0D000302F00200321094802680A430260084813
:10B0E00002680A4302600748804707480047FEE7B6
:10B0F000FEE7FEE7FEE7FEE7FEE70000240500406E
:10B100005405004099B50100C1B0010030B50B46AF
:10B11000014600202022012409E00D46D5409D4231
:10B1200005D31D469540491B2546954040191546B7
:10B13000521E002DF1DC30BD03460B439B0703D0AC
:10B1400009E008C9121F08C0042AFAD203E00B78EC
:10B150000370401C491C521EF9D27047D2B201E064
:10B160000270401C491EFBD270470022F6E710B562
:10B1700013460A4604461946FFF7F0FF204610BD65
:10B18000F0B51FB40646002082B005464024019168
:10B1900000901BE0019922460F46304600F042F82D
:10B1A000049A059B801A994110D3104619462246ED
:10B1B00000F028F8361A8F4101972246012000211D
:10B1C000009F00F01FF838184D4100902046641E83
:10B1D0000028DFDC019B00982946324607B0F0BD0D
:10B1E000064C0125064E05E0E36807CC2B430C3CDA
:10B1F00098471034B442F7D3FFF766FFFCED010027
:10B200001CEE010010B5202A04DB0146203A9140D3
:10B21000002010BD914020239C1A0346E3401943AF
:10B22000904010BD10B5202A04DB0846203AD040DB
:10B23000002110BD0B46D340D0402024A21A9140DB
:10B240000843194610BD0000FEB5134C0026E06807
:10B250000125124F002810D000F0C8FB00280BD0A9
:10B260000120B86068460670E0680190217C68465D
:10B270000181A57421688847FEBD09480660012048
:10B28000B8600848066069460D7080688880A574BB
:10B2900068462168EFE700006C260020007300403C
:10B2A0000071004000750040F0B50025C1B0FF22DC
:10B2B0002C462F46114601A8FFF750FF17490820DA
:10B2C000C860174E0020707069460C714871002FDD
:10B2D00001D0572100E056210090FF2301AA114818
:10B2E00002F036FA002801D000F04CFD70780028FA
:10B2F000FCD0FF2C0ED0641CE4B20B4802F006F91F
:10B30000012040026D1C8542DCDB04490820886076
:10B3100041B0F0BD01270024EFE700000005005018
:10B32000F41F00206CED010088130000F0B500242C
:10B33000FF268BB00136012527460694304602F0E1
:10B3400029FC002807D054484068284203D03046E2
:10B3500002F018FC2C43361D6D007F1CB6B2042F82
:10B36000ECD3FF257D35284602F014FC002809D0D7
:10B37000284602F007FC6807044306AA01210020C2
:10B3800002F0ECFB454D200714D001270026274290
:10B390000CD04348B200111808690969C004C00EF6
:10B3A0008903AA58890F002A00D090477F00761C95
:10B3B000042EECD3002C6DDA00200890401E63E0D0
:10B3C000281940300778B906890E009100214156AE
:10B3D000491C49D009A9009802F06DF8002843D013
:10B3E000B8090190009801F0CDFB80002F5801981A
:10B3F000002F02D0032802D00DE0032834D100989A
:10B4000008ABC20841079446985C490F01228A4064
:10B41000104362469854009805210907800040189F
:10B42000072109024018006806A98003800F0290D6
:10B43000009802F040F80028029802D0022802D0BA
:10B4400012E0032810D10198032808D1029802289D
:10B450001ED00221009802F044FB761CF6B2002FA9
:10B4600002D001990098B847641C042CA8D3002E80
:10B4700010D06A460121002002F070FB0699009866
:10B48000884207D00690089800263446099097E72E
:10B490000321DFE70BB0F0BD006300400826002069
:10B4A000006500408307FF22DB0E9A408907090EE2
:10B4B000994000280BDA0007000F08388308084875
:10B4C0009B001818C36993430B43C36170478308FB
:10B4D00004489B001B181868904308431860704785
:10B4E00000ED00E000E400E0F8B5FF20013001F0DD
:10B4F000EAFF002401250E4E0E4F002807D00E480B
:10B5000004600120B0607D70002001F043FBFF204B
:10B51000053001F0D8FF002808D00748001D04605E
:10B520000220B060BD70012001F034FBF8BD0000C6
:10B5300000030040F42500200001004010B506493A
:10B540000020086048608860C8600349403908608E
:10B55000486002F0B5FE10BD4011014010B502492F
:10B56000024801F081FC10BD802600200030004020
:10B5700010B502F017FE10BD10B50648406800284F
:10B5800005D08047002801D000F0FCFB10BD01F081
:10B590002BFC10BD9820002010B501F0C9FC00283C
:10B5A00005D01F491D484860C8131E4988611E48C0
:10B5B000018CC9B201290BD1828C120708D1028DEE
:10B5C0001206120F042A03D1828D1206120F0AD01E
:10B5D000012921D1818C09071ED1018D0906090F8E
:10B5E0000A2904D007E0114A01219160F5E7828D14
:10B5F0001206120F05D00D290ED1808D0006000F06
:10B600000AD10B480168012904D00A490160016888
:10B610000129FCD1C021416110BD0000DFFF07C03E
:10B6200000050040006C0040C00F00F00006004024
:10B6300000EC06407593000010B50249024803F083
:10B6400069F910BD50260020002000400FB410B54D
:10B6500003A9044B044A029800F054F810BC08BC3B
:10B6600004B01847C3CD0100942000200FB410B5DA
:10B6700004A9074B02AA039800F044F8044602A963
:10B68000002000F0ADF9204610BC08BC04B01847FB
:10B69000E1B9010030B47446641E2578641CAB42E5
:10B6A00000D21D46635D5B00E31830BC184702E022
:10B6B00008C8121F08C1002AFAD17047704700203D
:10B6C00001E001C1121F002AFBD17047202804DAD3
:10B6D000012181400348014201D001207047002030
:10B6E00070470000FC06FFBC202804DA01218140DD
:10B6F0000348014201D0012070470020704700003C
:10B70000FC06FFBCFFB58FB00F460446002606E0DE
:10B7100025280AD0129A11999047641C761C20782B
:10B720000028F5D1304613B0F0BD00250121A14A13
:10B73000009500E00543641C23780846203B9840B0
:10B740001042F7D120782E2815D1042005436078C7
:10B75000641C2A280AD101CF641C00900BE00099D8
:10B760000A22514330394018641C00902078014669
:10B7700030390929F3D920786C280ED004DC4C2804
:10B7800013D06A2812D104E074280ED07A280DD183
:10B790000BE001204005054307E00121090562781F
:10B7A0000D43824201D16D18641C641C20788646CA
:10B7B00069284AD008DC0028B4D058286DD0632806
:10B7C00010D0642808D140E070286BD0732812D0C4
:10B7D000752860D0782860D0129A704611999047E9
:10B7E000761CE5E03878694608720020487202A8A5
:10B7F0000190012003E0386801900020C0433F1D04
:10B8000069070CD5002500E06D1C00998D420FDA08
:10B810008542F9DB0199495D0029F5D108E0002551
:10B8200000E06D1C8542FCDB0199495D0029F8D1DF
:10B83000761907E0019801990078491C0191129A44
:10B84000119990476D1EF5D2B2E00A2002900021B6
:10B850006802400F039102280CD001CFC117844623
:10B8600000290DDA62460846524200218141944681
:10B870002D2008E0FF1DFF08FF0003CF8446EFE7FF
:10B88000280504D52B206A46107401203CE0E80707
:10B890003AD02020F7E70A2000E010200021039191
:10B8A000029007E0102002900021042005430820A8
:10B8B000039100906802400F022810D001CF0021B0
:10B8C000844600200D9028071FD5704670280CD0A4
:10B8D000029A1020039B42401A430CD015E0FF1D32
:10B8E000FF08FF0003CF8446EBE740206A46107450
:10B8F00001200D900CE06046084306D030206A46D7
:10B9000010747046507402200D907046582804D070
:10B9100029A001900DA80E900DE02CA0F9E760463B
:10B92000039B029AFFF72CFC019B84469B5C0E9ABA
:10B93000521E0E92137060460843F0D10E9805A96E
:10B94000081A20300190680701D5009801E0012015
:10B9500000900199884203DD01460198081A00E031
:10B9600000200025009006E004A8129A405D11997D
:10B9700090476D1C761C0D988542F5DB04E0129A09
:10B98000302011999047761C0099481E009000299C
:10B99000F5DC08E00E980E990078491C0E91129A79
:10B9A00011999047761C0199481E01900029F1DCFD
:10B9B000641CB4E60928010030313233343536379F
:10B9C00038396162636465660000000030313233EB
:10B9D000343536373839414243444546000000008B
:10B9E0000A68531C0B6010707047000070B5144952
:10B9F0000020124B0860134908608C681248427C92
:10BA0000C5685600521CAC53D2B24274047CA242A8
:10BA100012D2846800226468002C0AD0012284605B
:10BA20002068486001200860002A00D018600020CB
:10BA300070BD44688460F3E7012070BD0070004071
:10BA400000710040007500406C260020F8B500250C
:10BA50002D4C052805D0062805D0072805D0002044
:10BA6000F8BD2A4802E02A4800E02A4860602A49D6
:10BA700001204860294A0021116020600720FFF75B
:10BA800025FE224E8027F61F002802D0244807609A
:10BA900002E0304600F076F90720FFF717FE002895
:10BAA00014D02048016803220902090A92071143B1
:10BAB00001600720FFF70AFE00280BD01A484168F2
:10BAC00000290BD00168B943016009E0304600F05D
:10BAD00059F9EEE7304600F055F901E013480760E8
:10BAE0000E4A00201060124B0121196001E06D1C0C
:10BAF000EDB21668002EFAD0C82DF8D81060A068F4
:10BB0000596080B2F8BD00000075004008200000B8
:10BB100008400000088000000073004000710040F1
:10BB200080E200E004E400E08C20002080E100E0FE
:10BB300000700040F7B584B00646002517881580D0
:10BB400020300290407B1446002806D03A46214619
:10BB5000059800F005FD050009D1B078002823D034
:10BB6000059886462088001DB84202D90C2007B0EF
:10BB7000F0BD684679DF0028F9D12188032072469C
:10BB8000505420881921401C80B2208011542088F4
:10BB90007146401C80B2208041186846008802F03F
:10BBA0004DFF218840182080F078002817D0218888
:10BBB00003230A46F356C91C0598B942D6D8022178
:10BBC000815421880122491C89B221804254218854
:10BBD000491C89B2218043542088401C2080706811
:10BBE000002817D021880023C3560A46C91C05988F
:10BBF000B942BBD80221815421880A22491C89B24A
:10BC0000218042542188491C89B2218043542088D4
:10BC1000401C2080308900280AD0009430460197CB
:10BC2000062202210830059B02F056FF05009ED136
:10BC3000308A00280AD00094304601970722032159
:10BC40001030059B02F048FF050090D1308B002892
:10BC50000AD0009430460197152214211830059B14
:10BC600002F03AFF050082D1306A002806D03B4638
:10BC70002246059900F0F6FF0500D8D1706A002829
:10BC800006D03B462246059901F092FB0500CED135
:10BC90000298007B002807D03B4622463046059993
:10BCA00002F070F90500C2D13078002807D03B4679
:10BCB00022463046059901F0AFFB0500B7D1284672
:10BCC00055E70000174A0021535C002B01D00122E8
:10BCD00003E0491C0629F7D300221349012806D0A6
:10BCE00002280BD0032810D0042818D112E048787D
:10BCF000002803D0002A01D001207047887800284E
:10BD000003D0002A01D002207047C878002801D053
:10BD1000032070470879002801D0042070470020D4
:10BD2000704700002D2000200C24002010B50122B7
:10BD30000221002000F0E2FD002801D0072812D1E6
:10BD400007220221012000F0D9FD002801D0072898
:10BD500009D100210A22084600F0D0FD002801D0B8
:10BD6000072800D1002010BDBFF34F8F04490348BE
:10BD7000C860BFF34F8F00BFFDE700000400FA0565
:10BD800000ED00E00EB50021029000916A4601919D
:10BD90000148FFF7E9FF0EBD0140000010B58268C1
:10BDA000C368934203D000F0F9FF002010BD0520C6
:10BDB00010BD002906D0002A02D0531E134203D022
:10BDC000092070470E207047016083800021816048
:10BDD000C1600846704710B58268C3689A1A8388A4
:10BDE0009A4203D800F0E4FF002010BD042010BDEB
:10BDF0000A4B5B68002B07D0002A07D0002805D02B
:10BE00000068037C002B03D0082070470720704790
:10BE10000023037441744261184670476820002073
:10BE2000FFB507469007002581B01E46144600283E
:10BE300025D1002C23D001F0C7FF3046114EF06011
:10BE4000304610300570457002998170446075600D
:10BE5000357001240C4875702405046003211420FA
:10BE6000FFF720FB09480460094CA760032111205B
:10BE7000FFF718FB6068B060002005B0F0BD072038
:10BE8000FBE700005820002080E200E000E100E035
:10BE900000150140FEB51F4B5B68002B30D0002819
:10BEA0002ED0052901D20720FEBD4369002B27D0E3
:10BEB000437C012B26D000270291044600256946C9
:10BEC00016460D70684600F0D1F801A802F0EEFDAC
:10BED000002819D0012101700F4944604968816030
:10BEE000029907614661C16068460A490079487055
:10BEF0006846007800F0D8F802F096F92846FEBDB2
:10BF00000820FEBD0F46D7E768460425007800F0FC
:10BF1000CBF8F3E7682000200015014010B5084970
:10BF2000496800290AD0002808D04169002905D0B5
:10BF300000210174022102F09FF910BD082010BDFC
:10BF40006820002070B50B4D0146AE780A48FFF717
:10BF500025FF0446002E0AD00020A870691C01228B
:10BF6000C81D01F05BFC002801D0FFF70BFF204645
:10BF700070BD000078200020A8260020F0B5274ED4
:10BF800089B01F460D00044672601CD0A88829683D
:10BF900082B22348FFF70DFF002815D1A889A968B0
:10BFA00082B21F481030FFF704FF00280CD1202276
:10BFB0001C496846FFF7C0F860690690207C00289D
:10BFC00004D0012103E0072009B0F0BD002168463C
:10BFD00001750777607C002800D00E2069464875FF
:10BFE000E0680290A068039020680190606800906B
:10BFF0000A480D4A083001F0D1FB0028E4D1B070A6
:10C000002068401CE0D00548083001F035FC0349A9
:10C010000122491CC81D01F001FCD5E77820002051
:10C02000A8260020DCED01006DE8010010B50146F6
:10C030000C48FFF7D0FE040012D10B4801F0E6FCDB
:10C0400000280DD1084907480839FFF7A7FE002846
:10C0500006D1054901220839034801F077FC04465E
:10C06000204610BDB82600208020002030B5EFF318
:10C07000108172B6094A54680123002C04D0037061
:10C08000002900D162B630BD5360054B1D68054CD8
:10C09000254015601C6000220270F1E78C20002012
:10C0A00080E100E0FC06FFBC08494A68002A0CD089
:10C0B00000280AD1EFF3108072B60A68044B1A60A8
:10C0C00000224A60002800D162B670478C20002010
:10C0D00000E100E0F8B5074608680C460526411C5B
:10C0E00001253602002906D0294681401948816081
:10C0F000206801F0DBFC6068411C02D0002101F0E7
:10C10000C2FC3968A06989194862607D217D3A685E
:10C1100008439119C866386806CC80194261C1602D
:10C12000207B083C012814D1A068411C02D00021CA
:10C1300001F0A9FCE068411C05D0854005488560F8
:10C14000E06801F0B3FC3A68E1689219A068916078
:10C150001061F8BD00050050F0B50C4693B01F21EA
:10C160006A461180072600279180002809D0C178EF
:10C1700049070DD502A9FFF7DDFC002809D102AD62
:10C1800001E000251780002C0ED0E078002802D0B6
:10C19000304613B0F0BD01AA0AA92046FFF7CAFC39
:10C1A0000028F6D10AAA02E0684600228780684685
:10C1B0008088C3B268460088C1B2284672DFE8E7CB
:10C1C000FFB581B01E460A9F1346040047D0002BDE
:10C1D00045D0504D012028700020E87020221946DB
:10C1E0004D48FEF7A9FF00206F61C0432E612881F2
:10C1F000284607211830FEF7B8FF47483C21203079
:10C20000FEF7B3FF4448217820300170A178817097
:10C21000E178C170617841703F4A6569236955636F
:10C22000114613632031E368A268CB608A603A4903
:10C23000E369A269CB638A63616A00291AD0014667
:10C240003C310246483241628A60636A1B880B8037
:10C25000616A436A898899800021436A07E00E2059
:10C2600005B0F0BD656AAD686D5C5554491C9D888C
:10C270008D42F7D8A16A00291CD0274A9432114672
:10C280000C398A608162A36A9B888B80A16A836A69
:10C29000098819800021836A04E0A56AAD686D5C95
:10C2A0005554491C9D888D42F7D82C210A5D1A49A6
:10C2B00040310A73216A002909D016490A31016206
:10C2C000226A52884A80216A026A0988118061685C
:10C2D000002900D04160104A0E490020B3322031BD
:10C2E000C3001B1A85009B180C68401C635108286A
:10C2F000F6DB094A0020EB32030185009B188C68AD
:10C30000401C63510828F7DB034802992030FFF7EF
:10C3100023FFA5E7142000200C24002010B501887D
:10C32000134C102915D0112919D01B2910D1007ACE
:10C3300000280DD1E0780521401CFEF7E7FE0846F5
:10C3400000F018F8002803D06169002900D0884760
:10C3500010BD817D0129FBD18088208110BD002185
:10C360006171808821898842F8D10120E8E70000C6
:10C3700014200020F1B53F4C88B0207800280AD066
:10C380000898E07006A800F023FD06980125002813
:10C3900004D065706AE0082009B0F0BD3548002778
:10C3A00007211830FEF7E1FE334E7078002802D0E6
:10C3B000E078012807D0B07800280CD0E078012878
:10C3C00001D0022807D12169002903D02571082056
:10C3D000884700E027710898FFF774FCE070216936
:10C3E000002909D0032801D0042805D1307800287D
:10C3F00002D06079002811D0A77118216846FEF795
:10C40000B4FE684607700772E1781A480B001830CE
:10C41000FFF740F9052E080F191D2000A571072010
:10C420008847EAE7A5700190684605704782078251
:10C4300013E00221A170019068460570B189418224
:10C440003189018209E0684601F0E4FD02E06846B6
:10C4500001F00CFEE078002803D0684673DF002866
:10C460009AD12169002901D0A0788847002093E75C
:10C47000A770F6E7142000200C24002070B50546B4
:10C4800001461C220E48FEF757FE0E4C0026267071
:10C490002968002906D00822201DFEF74DFE201D28
:10C4A0007ADF02E00748001D7BDF002807D1401E2D
:10C4B00060806670044A00210448FFF799FC70BD53
:10C4C000D82500204420002049EA0100B8ED0100F1
:10C4D000F8B5214C0146028800261E48E589102A3D
:10C4E00013D01E4F112A1FD0122A2BD0502A1AD136
:10C4F000881DC988A94216D14189022913D10C305F
:10C5000000F0FEF800280CD112E08A880446428030
:10C51000104808220C301831FEF70EFE6670002D10
:10C5200001D100F0E7FBF8BD0021C943418046700E
:10C530003868FFF7F3FC0028F5D0A1690029F2D094
:10C540008847F8BD034808220C300831FEF7F4FD97
:10C55000E7E7000044200020D8250020B8ED0100C6
:10C560007CB5054608880C460930904201D90C205C
:10C570007CBD684671DF0028FAD121880820685404
:10C5800020881B21401C80B220802954208800A9CB
:10C59000401C80B22080401906220131FEF7CCFDFC
:10C5A00020886946801D80B220800978002900D04B
:10C5B000012129542088401C208000207CBD0000DF
:10C5C00010B50446FFF784FF2146064800F040F806
:10C5D000204601F023FB2046FFF7A0FE204600F096
:10C5E000F5F810BD8423002030B5184B0D4604002B
:10C5F0000FCB85B003936B4607C324D0002D22D008
:10C600000020C043A0822868A0610020A0752146B8
:10C61000684663DF002814D12178684681740121BF
:10C620000182A21C04A90120A0DF002809D129460B
:10C63000204601F0FEFB002803D12946204602F0E7
:10C6400098F805B030BD0E20FBE70000BCED0100FE
:10C6500010B500281BD0002919D00A88102A17D03D
:10C66000112A17D0502A12D104468A1DC888238A5D
:10C670001231984202D15389022B0FD0A3889842DD
:10C6800005D1A369002B02D052892046984710BDDE
:10C69000898801E00021C943818210BD084600F06D
:10C6A0002FF8002800D00120A07510BD07B584B078
:10C6B00000280DD0828A114B9A420BD0827D002A2D
:10C6C00008D06A46128B142A06D9072007B000BD8D
:10C6D0000E20FBE70820F9E7002200920192029267
:10C6E000039282896B461A80039106A90291012167
:10C6F0009970808A6946A6DFE8E70000FFFF000026
:10C700004178027808021043C007C00F704700004C
:10C710000149085C7047000088ED010005490B5C89
:10C7200005494A6801209840034693438B601040B6
:10C73000C860704784ED01000005005010B5034942
:10C74000085C012101F0FEF910BD000084ED01003C
:10C7500010B50349085C002101F0F4F910BD000098
:10C7600084ED01000549095C05484068C840C007E0
:10C77000C00F00D0012001214840704784ED010026
:10C780000005005010B500242046FFF7D7FF641CB9
:10C79000042CF9D310BD10B500242046FFF7D8FFB4
:10C7A000641C042CF9D310BD0246002010B5C04310
:10C7B000054B00215C5C944201D1084610BD491C28
:10C7C0000429F7D310BD000088ED010010B51C4C02
:10C7D0000188606810290DD011290AD1401E6060BF
:10C7E00007D1FFF7A3FA002803D02168002900D061
:10C7F000884710BD00281ED100210122084600F004
:10C800007DF8002801D0072811D10722022101203C
:10C8100000F074F8002801D0072808D10422022172
:10C82000002000F06BF8002805D0072803D021680D
:10C83000002900D088476068401C606010BD00007F
:10C840000C20002010B5002000F04AF9002801D08B
:10C85000062807D1012000F043F9002801D006285E
:10C8600000D1002010BD0000F3B581B00D46019845
:10C87000FFF79AFF0446042813D21D481D4F1E4E91
:10C88000002D27D0012D0DD0022D0AD160002018D7
:10C89000C0194578002D04D0F168002901D0284640
:10C8A0008847FEBD610061187D5CCF197978002949
:10C8B0000BD071680A2251430F4A8068921CFFF71F
:10C8C000E9FA002801D10198B0700B48B97810300E
:10C8D0000155DFE78068FFF721FB07486100611819
:10C8E0001030C919005D8D78A842D3D0FEBD00007C
:10C8F0008CED0100E0230020F81F002070B500231C
:10C90000042811D2440004190D4D012A02D1012935
:10C910000DD0002246008019094E801900290CD044
:10C92000012906D0022906D00723184670BD0E3013
:10C93000C2B22A55F9E74270F7E78270F5E70000C6
:10C94000E023002010B5054A0146127A0020D207E4
:10C9500002D0084600F004F810BD0000F81F0020C7
:10C96000F8B55D4C054660780026002803D000200D
:10C970006070FFF707FF0120584F2B00FEF78AFE7B
:10C9800018970D0D2E3D4A5F64686F686FA9777721
:10C99000777777979A9DA0A9A9950020FFF7E2FEE7
:10C9A00000280AD00020FFF7C9FE022D02D1E120A5
:10C9B000C0000BE07D20400108E00020FFF7C8FE2A
:10C9C000022D01D1C82001E0FF20913025706421A3
:10C9D000FEF79CFB6168414300222BE00020FFF73B
:10C9E000C1FE002805D00020FFF7A8FE1920400155
:10C9F000ECE70020FFF7ACFEE4E70020FFF7B2FE13
:10CA0000002803D00020FFF799FED3E70020FFF7AE
:10CA10009FFED9E70020FFF7A5FE002803D00020E5
:10CA2000FFF78CFE02E00020FFF792FE25706068A1
:10CA3000410000223868FFF72DFA064635E0002055
:10CA4000FFF76CFE257007E000203FE025702CE02A
:10CA500060700120FFF762FE00226168EAE7607003
:10CA60000120FFF75BFE606881004118E1E778680C
:10CA7000FFF754FA06461120401B01D0002E03D0C8
:10CA80000220FFF75BFE10E001280BD9C8214843C4
:10CA90006421FEF73BFB6168002241437868FFF7A1
:10CAA000F9F906460220FFF753FE3046F8BDFFF7BE
:10CAB00069FECBE7FFF766FEC6E7FFF763FE04E01B
:10CAC000FFF760FE0020FFF743FE0120FFF740FE66
:10CAD000BCE7FFF760FEB9E7F81F00208CED01000E
:10CAE00010B5FFF715FE032100F0EAFF002010BD8E
:10CAF000F8B500250C2001F00DF800283AD00820E8
:10CB000001F000F800271E4C7D2636010C2001F0B4
:10CB100001F8002825D0A068401CA060042800D19E
:10CB2000A7600E2000F0EEFF0D2000F0EBFF0A20C2
:10CB300000F0E8FF072000F0E5FFA068002806D01D
:10CB4000012806D0022816D0032805D115E00E20B2
:10CB500000E00D2000F0E6FFFF20F53000F0BCFC07
:10CB60000025012000F0B8FC6D1CB542CEDB08208A
:10CB700000F0D8FFF8BD0A20ECE70720EAE7000044
:10CB8000E81F0020024909182020085670470000BD
:10CB90000826002070B5084C050009D01034216823
:10CBA000002907D008682060496828468847F6E7CA
:10CBB0000834F4E770BD0000F4250020F8B52348E0
:10CBC000416800293ED00E6821494C68876880780A
:10CBD000E11B0D022D0AED1C002814D101201D4A75
:10CBE000000450601B4A403A50601B4940000860F6
:10CBF0001A4908601A49012008602F2000F0B6FC8D
:10CC0000124901208870B54200D23546E819000269
:10CC10000F4B000A403318600D4A5168001B091B76
:10CC20000902090A0002000AC91C814209D9506898
:10CC300018602F2000F09AFC012007494004803939
:10CC40000860F8BD01F0C0F8F8BD000058200020D1
:10CC5000001501404013014080E200E000E100E0E7
:10CC600000100140F8B50646108814468446801D21
:10CC70000D46984201D90C20F8BD32880720062ABB
:10CC8000FAD31927FF01184BBA4201D99A42F3D1BE
:10CC900071880629F0D3B94201D99942ECD19A4260
:10CCA00003D0994201D08A42E6D805216046295432
:10CCB00020881221401C80B2208029542088401CEA
:10CCC00080B220804119308801F0B8FE21884018D8
:10CCD00080B220804119708801F0B0FE2188401890
:10CCE00020800020F8BD0000FFFF000010B5FFF716
:10CCF00049F810BDF8B5164800F00CF9144D00269F
:10CD00000C3D144C002807D0616900291CD001207B
:10CD10006A461070684616E02878002805D06169D8
:10CD2000002911D0684606700DE0687800280DD003
:10CD3000A168094800220068FFF7ACF8002803D07A
:10CD4000A169002900D088472E70F8BD6168F0E71E
:10CD500050200020D8250020B8ED010010B50E4964
:10CD600000230A784C78A24212D0521CD2B20A7028
:10CD7000022A00D10B700A78074B920018339A5898
:10CD80000260886810180002000A8860012010BD47
:10CD90000360002010BD00005820002082688388B6
:10CDA0001A4003689A5C0A708168491C8160704768
:10CDB000C26883881A4003689954C168491CC160DD
:10CDC000704710B50446C0B2FFF730F9204610BDD9
:10CDD000002804D00349496E0160002070470320F9
:10CDE00070470000C8260020F8B51E4C20780028A7
:10CDF00036D0E068002600280CD000256078002896
:10CE00002ED1684652DF052806D0002806D0FEF74E
:10CE1000B9FF0BE00125F1E7012607E0009800F0DB
:10CE2000FBFB2169002901D000988847002D13D110
:10CE30006078002814D1608869460880A06861DFA6
:10CE4000052804D0002804D0FEF79CFF04E001254B
:10CE500002E0E168A0688847002ECFD0002DE5D021
:10CE6000F8BD0000982000207FB50C460D46203507
:10CE70000646697828780191009022462632D11E14
:10CE80003046E36901F04DFB002819D1E87800280D
:10CE90001DD1207B022801D0032818D12269E16925
:10CEA000914214D16269E261E37B2B70217E890695
:10CEB000C90F6970032804D03146204601F0CAFA30
:10CEC0007FBD00913146204601F0B0FB7FBD20467A
:10CED0000C3007C801AB07C3E878002100280ED04A
:10CEE0000920C0013218506C5064820701D501201E
:10CEF00002E0400705D502206A46107001E068464E
:10CF000001702971207E4007E0D42268684661687C
:10CF100090477FBD418805480288914204D34088EC
:10CF2000814201D80120704700207047482000202E
:10CF30001048018CC9B2012917D1818C090714D17D
:10CF4000018D09060A0F03D1828D1206120F0ED031
:10CF5000090F012903D1828D1206120F07D0032970
:10CF600003D1808D0006000F01D000207047012002
:10CF700070470000C00F00F010B50E2000F08CFDCF
:10CF80000D2000F089FD0A2000F086FD072000F04A
:10CF900083FD082000F080FD0E2000F0C3FD0D2071
:10CFA00000F0B0FD0A2000F0ADFD072000F0AAFD62
:10CFB000082000F0B7FD10BDF0B5284C214610390F
:10CFC00048688B68227886469C46CF78667836E03B
:10CFD000182353436168521CC918A378D2B29342F4
:10CFE00000D100220B78022B02D0032B27D123E0A3
:10CFF00003464D68194603E0A94204D00B46C969AF
:10D0000000291CD0F8E7002919D08B4208D1C0694B
:10D01000002805D1124F0125BD600025AC4601272F
:10D020000D68C969D961002909D00B685B190B60CB
:10D0300005E00174C06900E000210028F9D19642A2
:10D04000C6D10649624610398A604860CF70704583
:10D0500001D00120F0BD0020F0BD000068200020BC
:10D0600000100140F8B52C4E044670680025009071
:10D0700041E0002C02D02046E46920E02648182335
:10D080001030017842684B43491CC9B2D218017074
:10D090008378994200D105701178506801292CD10C
:10D0A000017C002929D191684160D16881601169B2
:10D0B000C16051698161F178002900D04560436801
:10D0C000B268164F991A0902090AB94202D2826857
:10D0D000891806E0D11A09028268090A8A4202D92F
:10D0E000511A016000E0056045600121856001740E
:10D0F000C56101F0A1F8002CBBD1074810300178C0
:10D1000040788142BAD171680098814201D00120F3
:10D11000F8BD0020F8BD000058200020FFFF7F0070
:10D12000A8B0FFF729FF0021042000F0A3FC002194
:10D13000052000F09FFC0021062000F09BFC01214F
:10D140000C2000F097FC01F057F90023764A0521E6
:10D150001846FEF765FE002801D0FEF713FE1822E0
:10D1600072496846FDF7E8FFFF21013170480690DB
:10D17000401807910991089003236E4A06A9684652
:10D18000FEF7FCFE002801D0FEF7FCFD6748684969
:10D19000001F00680590002348225C3905A800F0B4
:10D1A000CFFF002801D0FEF7EDFD6A4601210020E7
:10D1B00000F0AEFF002801D0FEF7E4FD684600F065
:10D1C0009DFF002801D0FEF7DDFD5B4800F08CFFDD
:10D1D000002801D0FEF7D6FD1120694608720B2207
:10D1E00056A102A87CDF002801D0FEF7CBFD002469
:10D1F000009410216846019401803C214180FF2168
:10D2000084809131C1807ADF002801D0FEF7BAFD19
:10D210004D480090444869467830FFF7E5F900280A
:10D2200001D0FEF7AFFD3C2101A8FDF79EFF0221D2
:10D230006846017184710621C1713C2110A8FDF777
:10D2400094FF012510A805824048159020211FA8B1
:10D25000FDF78BFF18A8C5774020009423902494F5
:10D260003B4B1FAA10A901A8FEF7AAFF002801D076
:10D27000FEF788FD1C216846FDF777FF0520C003F7
:10D2800001900F200004029000940321684601736E
:10D29000C48104742F4805902F4806906846FFF714
:10D2A000EDF8002801D0FEF76DFD2CA0FEF7CEF9B9
:10D2B0000320FFF75FF8002801D0FEF763FD234D40
:10D2C0002D1FFFF715FCA868002806D0012810D0F4
:10D2D000022815D003281CD11FE024A0FEF7B6F9C0
:10D2E0000E2000F01FFC48DF002812D0FEF74AFD98
:10D2F0000FE023A0FEF7AAF9FDF7D6FF0D2005E009
:10D3000023A0FEF7A3F901F08DFC0A2000F0FAFB40
:10D31000AC60642000F0E0F8D3E721A0FEF796F9B6
:10D3200000F028FD0720F1E70C23002054ED010058
:10D330000C2100200DE80100C1C501004E6F726490
:10D3400069635F5541525400CDDB0100EC1F0020A2
:10D35000FDDB0100EDDC0100EDCC01000D0A5541C3
:10D360005254205374617274210D0A000D0A5374D3
:10D37000616E646279206D6F64650D0A00000000C3
:10D380000D0A774572617365206D6F64650D0A0043
:10D390000D0A5772697465206D6F64650D0A00008F
:10D3A0000D0A52656164206D6F64650D0A0000000E
:10D3B00070B5144682880E4605462088111D411816
:10D3C000921C994201D8FE2A01D90C2070BD521C32
:10D3D00032542088FF21401C80B2208031542088A4
:10D3E000401C80B220808119288801F027FB218809
:10D3F000401880B22080AA88002A09D0A968002994
:10D4000008D08019FDF798FE2088A9884018208050
:10D41000002070BD072070BDF8B50F460178144696
:10D420000546012902D16878002806D02088821C90
:10D430009A422DD8012902D006E00720F8BD69786C
:10D440004118891C994223D8181A801E86B2684652
:10D4500006802188B81C081869467DDF0028EDD1B8
:10D460002878022805D169460988B14201D80921E6
:10D470000AE00821012805D16878B04202D86A463E
:10D48000108001E06846068068460088FE2801D9C1
:10D490000C20F8BD2288401CB8542088401C80B263
:10D4A0002080395420886946401C20800988401813
:10D4B00020800020F8BDC20843075B0F0120895C73
:10D4C00098400840704701218907401800680028EB
:10D4D00000D00120704700007D21C90048430FD0D3
:10D4E0000849094A096800BF00BF00BF00BF00BF6C
:10D4F00000BF00BF00BF914200D000BF0138F2D191
:10D5000070470000AC2000200024F40000280FD059
:10D510000849094A096800BF00BF00BF00BF00BF3B
:10D5200000BF00BF00BF914200D000BF0138F2D160
:10D5300070470000AC2000200024F40000280FD029
:10D540000849094A096800BF00BF00BF00BF00BF0B
:10D5500000BF00BF00BF914200D000BF0138F2D130
:10D5600070470000AC2000200024F40000280FD0F9
:10D570000849094A096800BF00BF00BF00BF00BFDB
:10D5800000BF00BF00BF914200D000BF0138F2D100
:10D5900070470000AC2000200024F40070B50E4C51
:10D5A00000252078002801D0852513E00021A16006
:10D5B00061602161E160094800680126304002D1C4
:10D5C000032100F02FF800F0E7FD002801D1044806
:10D5D00086612670284670BDF425002000E100E039
:10D5E0000005004038B50020694608706846FEF71F
:10D5F0003DFD084C2078002801D1FFF7CFFFE068FF
:10D60000401CE0600120A07068460078FEF74CFDE9
:10D6100038BD0000F425002010B5002801D1FFF727
:10D62000B9FA10BD8207D30EFF229A408907090E6E
:10D6300010B5994000280BDA03071B0F083B9C0824
:10D640000C4BA400E318DC6994430C43DC6107E055
:10D650008408094BA400E418236893430B43236018
:10D66000C106C90E012088400449086004490860C9
:10D6700010BD000000ED00E000E400E080E200E00A
:10D6800000E100E0017928225143054A0068891829
:10D6900005221302C01802600220203188707047F2
:10D6A00080260020F8B507460C460079282148431B
:10D6B0001B4945182E462036B078002801D0082096
:10D6C000F8BD0CC50020286070713071A07BF0712E
:10D6D000607B083D002802D0204600F031FE216822
:10D6E00010488A0010495218106062689200511860
:10D6F0000860052338681B0206CCC0188160C26030
:10D70000216841622868083C002805D03868217BE0
:10D71000000B40B2FFF786FF0120B0700020F8BD7B
:10D72000802600200C060000000700503EB5074D83
:10D730002C68AD68009402956C466170A3700192EC
:10D740000022694600F016F83EBD0000D0ED010051
:10D750003EB50025069C009502956D466970AB703C
:10D760000192002C01D0202200E00022294600F086
:10D7700001F83EBD70B50D46017928235943064B8B
:10D78000CC18910701D0062070BD134601682A46C7
:10D79000204600F099FF70BD80260020F8B50646AF
:10D7A0000F4600791C2148431A4915464418E07E6B
:10D7B000002801D00820F8BD39463046FEF78AFC23
:10D7C00065603869206028460025002813D0FF22B4
:10D7D0003068397F1D328550FF22306845328550D0
:10D7E000032330681B020C4AC01842603068000BEB
:10D7F00040B2FFF717FF052230680421120280189B
:10D800000160E5752576A5750121E1762846A576A6
:10D81000F8BD00005026002080000200F8B5037912
:10D820001C246343134C81251C19032766680023BD
:10D83000AD003F02002E02D00668F619B560E67D05
:10D84000002E0ED0237E002B07D06168002902D065
:10D850000068C01945601120F8BD216101232276BE
:10D8600004E0E2750025E1606576257600F01AF89F
:10D87000F8BD00005026002070B5044600791C2138
:10D88000074D48434019807E002808D1204600F00B
:10D8900029FB20791C22012150434019817670BD5B
:10D8A00050260020F8B5044600791C21484326493B
:10D8B0004518A87E184302D1204600F013FB686883
:10D8C000002808D0812103222068890012028018D4
:10D8D00041600020F8BDFF204530216800220A5039
:10D8E000FF212531206800F064F90646FF21093147
:10D8F000206800F05EF90090FF214531206800F0BB
:10D9000058F90746009838433043E9D03046384349
:10D9100007D12946206800F079FAE87D697E8842BF
:10D92000DED80020E875002E01D00320F8BD002FBE
:10D9300001D00F20F8BDA97E01200029216801D067
:10D940000860C6E74860C4E75026002070B5054669
:10D950000C4600791C21484308494318284600F02A
:10D9600055F8002801D0112070BD9A7500209C60E8
:10D970009882284600F004F870BD00005026002070
:10D98000F8B5044600791C2148431F490026451874
:10D99000FF2720681D37C651206801218160294674
:10D9A000206800F0D7FE6968002913D027E0FF2720
:10D9B0000137FF211D31206800F0FBF8002802D15B
:10D9C000A88AB842F5D1A88AB84203D0294620686F
:10D9D00000F0C0FEA88AA97D8842E8D3A98AC81FA2
:10D9E000F9380ED0FF271D373946206800F0E1F8DE
:10D9F0000028F9D020680121C1600020A8753046B8
:10DA0000F8BD0F26F9E700005026002000791C2100
:10DA1000484303494018807D002800D0012070470A
:10DA20005026002070B552000A439900049D0A4315
:10DA30002902059E0A43310405240A432407800075
:10DA40000721001909024018026070BD70B552002C
:10DA50000A439900049D0A432902059E0A433104A2
:10DA600005240A43240780000721001909024018F1
:10DA7000026070BD1CB500220B4600921146019257
:10DA8000FFF7D0FF1CBD1CB500220B4600921146CB
:10DA90000192FFF7DBFF1CBD1CB5002100910B4676
:10DAA000012201911146FFF7BDFF1CBD1CB50021ED
:10DAB00000910B46012201911146FFF7C7FF1CBDE3
:10DAC0000522120780008218072000021018026841
:10DAD00003231B049A430260026809040A4302609C
:10DAE00070470522120780008218072000021018D4
:10DAF000026803231B049A430260026809040A4374
:10DB000002607047012181400148C16070470000F8
:10DB10000005005002490969C140C807C00F70479D
:10DB200000050050012181400148816070470000DC
:10DB300000050050012181400148816070470000CC
:10DB400000050050012282400348002901D0826074
:10DB50007047C260704700000005005038B5084BA0
:10DB600005241B68009324026B46411805E08500DC
:10DB70005D592D192D69401C20C28142F7D838BD4E
:10DB8000CCED0100024940180021016070470000FF
:10DB900000600040034940180068012800D00020C0
:10DBA00070470000006000404058002800D001206D
:10DBB00070474058002800D001207047032212020D
:10DBC00080184068084000D00120704770B51646A4
:10DBD0000D46002405E0285DFEF728FA0028FAD15A
:10DBE000641CB442F7D30D20FEF720FA0028FAD1C6
:10DBF0000A20FEF71BFA0028FAD170BD10B50028E4
:10DC000009D0032806D10220FEF79CFE002801D08F
:10DC1000FEF7B8F810BD00F053FA10BD70B5044619
:10DC2000314D00886E8888B03A2838D00DDC022843
:10DC300039D0102813D011281AD0132822D100234C
:10DC40001A46852130467FDF26E051282FD0522802
:10DC50001DD0552816D1A088132176DF1CE007209F
:10DC6000FEF770FE002801D0FEF78CF8A08808E0CF
:10DC70000020FEF767FE002801D0FEF783F80020A1
:10DC8000C043688008B070BDFEF77CF8FAE7002357
:10DC90001A4619463046A9DF0028F5D1F2E7A088D8
:10DCA000132176DFF8E7A088002167DFF4E7102270
:10DCB000A11D04A8FDF740FA6846017C0029E1D0C7
:10DCC000007E042803D0062801D00528DAD10229D5
:10DCD00008D0012069460870FF2083308880A08822
:10DCE000A8DFD9E70220F5E7E81F002010B500788B
:10DCF000002807D104483B21408876DF002801D066
:10DD0000FEF740F810BD0000E81F0020FEB51E46DB
:10DD1000164D00232B706B4618715971002A01D0E3
:10DD2000572400E0562401200090022301AA214636
:10DD30000F48FFF70DFD002801D0FEF723F8FF275D
:10DD4000F5373846FFF7E2FBFD2332462146084807
:10DD5000FFF7ECFC002801D0FEF714F83846FFF777
:10DD6000D5FB28780028FCD0FEBD0000F41F002061
:10DD70006CED0100F0B5C1B0002426466F460C20C2
:10DD8000FFF7C8FE00281AD16B4632460021204614
:10DD9000FFF7BCFF002514206843C119142209486D
:10DDA000FEF784FC6D1C0C2DF5DBFF2C02D0641CEF
:10DDB000E4B2E4E7002E02D101260024DFE741B0FF
:10DDC000F0BD00008423002070B501240B496004DD
:10DDD00008600B4940108860094940398860094D46
:10DDE0006C602F20FFF7C2FBAC60074D00242F2092
:10DDF000AC60FFF7BBFBAC7070BD000080E100E0E1
:10DE000040130140001001405820002030B5FF228F
:10DE10000523CD7D002409321B02C318002D845038
:10DE2000986905D04B7ECA68D054487E401C48761D
:10DE300030BD70B500240546601C90B00007000F8F
:10DE400008A9103008940870601C0007000F1030FB
:10DE500048708878F9263040801C88701C2101A801
:10DE6000FDF783F96946087910210843694608716E
:10DE7000029408A80494059407940690287808A9A9
:10DE800088710320694688841120009408704870C6
:10DE90008878F7213040801C0840EF210840012697
:10DEA00030436946887014210AA8FDF75EF909A875
:10DEB0000A9068460B9069460E8614204C86888628
:10DEC0002B4668880C330AAA01A9A2DF10B070BDE6
:10DED0001FB501246B461C701972019206C8684672
:10DEE00090471FBDFF23253302680021D150FF2337
:10DEF00002680933D15000680121016070470000B9
:10DF000010B50446FDF7F0FB00280CD0A007C00EAA
:10DF1000002C0ADA2107090F08398908144A8900F8
:10DF20008918C96906E0134810BDA108124A890082
:10DF300089180968C1400806800F042811D20028FA
:10DF40000FD002280DD00D494B68E206D20E0120F9
:10DF50009040002B08D0620992008B5803438B50ED
:10DF600004E00448401C10BD05490860002010BDB5
:10DF700000ED00E00120000000E400E08C20002023
:10DF800000E100E0FFB50746806A81B01446002832
:10DF90003DD0002538462030009033E00C20B96A8F
:10DFA00068430E18B088801CFE2802D90C2005B0EA
:10DFB000F0BD22880299401C885420881622401CFB
:10DFC00080B2208002990A542088401C80B22080B0
:10DFD00002994118308800F031FD2188401880B244
:10DFE0002080B288002A0AD0B16800290FD0029B95
:10DFF000C018FDF7A1F82088B188401820806D1C5A
:10E000000098EDB2007BA842C8D80020CFE70720D7
:10E01000CDE7000070B504461248134D018A2182F5
:10E02000818A61820078002818D06879002815D18B
:10E0300000F0C2FD002811D028462030E060022008
:10E040000849207204202031C87006480021203081
:10E05000FEF782F8002804D1052000E00320A87014
:10E06000002070BD0C2400201420002070B5044650
:10E0700011480426018B2182818B618200780F4D2B
:10E08000002816D06879002813D100F095FD0028EB
:10E090000FD028462030E060022020720648002180
:10E0A0002030C670FEF758F8002804D10620A8706A
:10E0B00000E0AE70002070BD0C2400201420002071
:10E0C00010B50020FEF73EFC002801D0FDF75AFEF7
:10E0D000FEF7B8FB002801D0FDF754FE3CDF002816
:10E0E00001D0FDF74FFE10BD002803D00249C860E3
:10E0F000002070470E207047982000201CB503496F
:10E1000001910091694660DF1CBD0000E81F0020FE
:10E1100070B50E460546144614211046FDF725F845
:10E120000120002120802161217326726572002D5B
:10E1300000D0A072002070BD10B5FDF715FE10BD17
:10E14000F8B5002903D08C070025002C01D007204A
:10E15000F8BD0E4E0E4FB1607280736039680124B5
:10E16000214003D00A49254680310C60094910DF5F
:10E17000002803D0002DEBD03C60F8BD3470FFF7D1
:10E1800031FA1620FFF7BCFEF8BD000098200020F1
:10E1900000E100E039E1010001480078704700002B
:10E1A00098200020FEB51F4C0025A76860680290EB
:10E1B0006846FEF7D3FD0190FEF7FEFE0646019885
:10E1C000002822D000230098616817E00E680A46F4
:10E1D000864202D9301A086012E0801BF31800262C
:10E1E0001660D668D169B446002E07D0FE183602F4
:10E1F000360A566066469660D56115460029E5D117
:10E2000028466160FEF72EFF06E02846FEF72AFF4B
:10E21000002801D1002E02D00298FEF7CFFC00208A
:10E22000E070FEBD58200020012002490005086072
:10E230007047000000E200E010B50E4B596800295D
:10E2400006D002680C68A24204D8A21A0A60C16112
:10E25000586010BD0B4604E00B46C969121B00292B
:10E2600004D00C689442F7D3A41A0C600260C16118
:10E27000D86110BD582000207CB50D46064600240C
:10E2800069460C706846FDF7F1FE01A800F00EFC2F
:10E2900000280DD00570466068460849007948702E
:10E2A00068460078FDF700FFFFF7BEFF20467CBD03
:10E2B000684604240078FDF7F7FEF7E768200020A1
:10E2C000F8B51D4D6C68002C34D01C480027406800
:10E2D000A968401A0602360A2068B04218D8361AD1
:10E2E000C7192246107CE46900280FD00020107462
:10E2F000EB68002B07D0916950699847002805D03A
:10E30000FDF740FD02E0516990698847002CE3D198
:10E3100029786878814206D1401CC0B26870022812
:10E3200001D10020687004490006800D18310F509B
:10E33000FFF77AFFF8BD00005820002000150140CB
:10E34000F8B504462168224D890020484919086023
:10E3500061688900491908602068FFF7EBFB606875
:10E36000FFF7E8FB19482168401C8900491908603B
:10E3700061688900491908600420FFF7DFF800266A
:10E38000144F012521793869C840C007C00F02D059
:10E39000002E19D00FE0217828468840F86004202C
:10E3A000FFF7CCF82068FFF7C5FB0420FFF7C6F89D
:10E3B000761C092EE6DB20798540FD600420FFF7FE
:10E3C000BDF86068FFF7B6FBF8BD00000C06000062
:10E3D00000070050000500500178002907D102799C
:10E3E00001200449012A03D0002A00D14870704757
:10E3F00008707047F41F00201FB50B490320086008
:10E400000A4B6C460FCB0FC408480023084A6946E4
:10E410000838FFF747F9002801D0FDF7B3FC03489F
:10E420000838FFF72FF91FBD0C07005074ED0100ED
:10E43000D9E3010001460320CA0701D04120400270
:10E440008A0700D50248490701D50148401C70479A
:10E4500001820000FFB50C4685B000210491FF2128
:10E46000053100261F466650FF2125316650FF21E9
:10E470001D316650FF210931665005462035E11DEA
:10E48000FF31AE71FA31EE70012F0FD001220A6018
:10E490000121216221600168002909D014498160AD
:10E4A000806803210902611848601DE00222EEE73E
:10E4B00001462631233003910290009701962046B1
:10E4C000079B039A029900F02CF80028F5D1E87810
:10E4D000002809D00920C0012118486C4864002890
:10E4E00002D0FFF7A7FF0490049809B0F0BD000028
:10E4F0008602000030B51C78039D944208D20522A4
:10E500001202095D8018C1611878401C187006E07D
:10E510000121002D02D0C161002030BD41610120E8
:10E5200030BDFFB50F46097883B00446002904D1F9
:10E53000059802780C98824201D1012000E0002069
:10E540000190FF2025300025002907D02550FF200D
:10E550001D302550FF200930255055E0FF21253181
:10E560002046FFF721FB012600282CD1FF211D3179
:10E570002046FFF719FB002814D0FF201D3025503E
:10E58000FF2125312046FFF70FFB00281BD10D98F6
:10E5900000902046059B0C9A0699FFF7ABFF0028D8
:10E5A0003FD031E0FF2109312046FFF7FDFA002876
:10E5B0002AD0FF2009302550FF2125312046FFF7C2
:10E5C000F3FA002805D0FF202530255066613E7003
:10E5D0001AE005990C980F78069ABC46874213D228
:10E5E00005231B02E3189B696746D3550A78521C22
:10E5F000D2B20A70411E8A4203D1022001020851A0
:10E6000001E0824200D02662019800280BD0FF264C
:10E61000053631462046FFF7C7FA002803D0A5513A
:10E62000002007B0F0BD0120FBE70000FFB5054664
:10E6300087B00C460020FF21109F053105906050E7
:10E64000FF2125316050FF211D316050FF2109312C
:10E650006050012149022E4608512036B071F070F9
:10E6600001202062A060B31D0097029320460A9A01
:10E670000999FFF73FFF2868002807D01148A860D4
:10E68000A868032109026118486018E023350A9838
:10E690000090019729462046099B029AFFF741FF07
:10E6A0000028F4D1F078002809D00920C0012118F1
:10E6B000486C4864002802D0FFF7BCFE059005981E
:10E6C0000BB0F0BD86020000F8B50446002503201B
:10E6D000ED43000208188560254620352E79002E6E
:10E6E00003D0A16841601120F8BD5807C017401C35
:10E6F0002871180701D50620F8BDA361C1CA0C34E2
:10E70000C1C40C3A9078287050680B266060F601FE
:10E7100050788E19B06010780026183C01280ED071
:10E72000002801D1980601D5012000E00020687082
:10E730000090937852682046FFF778FF05E06E70EE
:10E74000937852682046FFF785FE21680029D3D1CF
:10E750002E71F8BDFF221D32002383508B8A8A68F8
:10E76000D25C8B8A5B1C8B82052109024018C26136
:10E77000704770B58EB005461C216846FCF7F5FC65
:10E78000694608780C210843694608700024019402
:10E790000394049405940694287808A988700220AC
:10E7A00069460884601C0007000F10300794087742
:10E7B00011204877887FF9210840F721801C084004
:10E7C000EF2108400126304369468877142109A8C3
:10E7D000FCF7CBFC08A8099007A80A9069468E852B
:10E7E0001420CC85088668882B1D09AAA2DF0EB0EC
:10E7F00070BD1FB500226B461A70197281680191B5
:10E80000827506C8684690471FBD000070B5017844
:10E81000002907D0012901D0022902D14068FDF763
:10E82000B1FA70BD0F4C0E4D60782818FDF78AFBC9
:10E830006078401CC2B2A81862702038C07F0A28D5
:10E8400001D0142AEDD306490748FDF72FFF082809
:10E8500003D0002801D0FDF795FA0020607070BD4C
:10E86000F8200020E81F0020842300207CB50178D8
:10E87000264D002934D001290CD002292DD16A4619
:10E880001170C068691C01900122C81DFEF7C6FF07
:10E89000684630E0406801781D48FDF79CFA012683
:10E8A0001B4C002803D069460E70019006E0A0685A
:10E8B000E168814205D00020694608700846696811
:10E8C0008847A068E168081AA188884206D80F49DD
:10E8D0000122491CC81DFEF7A1FF7CBDAE707CBDA6
:10E8E0000B480A491030FDF759FA002806D00320DA
:10E8F000694608706846696888477CBD03490122FB
:10E9000008460830FFF722F87CBD00007820002080
:10E91000A8260020F0B50C46012185B00546490225
:10E92000FFF74CF9032109026F180026002826D0B2
:10E93000FF2125312846FFF73CF900281FD0FF2092
:10E9400025302E5081208000B860A07E002801D1A3
:10E95000012068600221684601700920C001291861
:10E96000086808600390E17D68460172E0680190E4
:10E97000E675267606CC6846083C90472DE00421D3
:10E980002846FFF71BF9002827D0FF210931284628
:10E99000FFF70FF9002820D021462846FFF736FA66
:10E9A000E07D617E884218D1207E002807D0617EFC
:10E9B000E268E0752069E060267666760AE0A07E6F
:10E9C000002801D10120686081208000B860E675D0
:10E9D000617EE2682046FFF77BFAFF271D37394644
:10E9E0002846FFF7E6F800280FD0A08AA17D8842CC
:10E9F00004D221462846FFF7ADFE06E0EE51A17D88
:10EA0000002902D02046FFF7F4FEFF27453739469C
:10EA10002846FFF7CEF800280ED0EE51A07E002841
:10EA200001D001202860E07D002805D0E675617ED8
:10EA3000E2682046FFF74CFA05B0F0BD0870000A06
:10EA4000487002207047000038B51549154A4888BB
:10EA500090420FD04A78144C521CD2B24A70237B99
:10EA6000934208D3091D75DF002803D0A16900294E
:10EA700000D0884738BD00254D70217C002907D083
:10EA80003B2176DF002803D0A169002900D0884708
:10EA900061690029EED068460570884738BD0000DE
:10EAA00044200020FFFF0000D825002010B50949B0
:10EAB0004B788C785A1CD2B2944200D100220C7848
:10EAC000944201D1002010BD0270486818214B43C8
:10EAD000C01810BD68200020FFB583B016460C9DFD
:10EAE0000D9C1F46022200950194039800F00CF83B
:10EAF000002807D13B461022314600950194039827
:10EB000000F002F807B0F0BDFFB583B00746002063
:10EB10000C9C8646268805463AE07868A90042188B
:10EB20001188684681805188C1800022694601A809
:10EB300065DF002839D1684601780598814226D1E1
:10EB40007046002801D0002200E0022220888918A7
:10EB500042180D998A4227D8714600290AD1401CD3
:10EB600080B22080069A049911542088401C20808D
:10EB700001208646218806980A18694601A865DFA3
:10EB8000002812D1694620880978401820806D1C21
:10EB90003888A842C1DC704600280AD02088801B33
:10EBA000401E80B2FF2802D90C2007B0F0BD0699A4
:10EBB00088550020F9E7000004480179002902D1B6
:10EBC000007B002800D00120704700003420002086
:10EBD000FEB5114C0026089F66706D46287169715C
:10EBE000AA71EB712F720D4D0820E860099800287A
:10EBF00001D0572100E05621052301AA08480096BC
:10EC0000FEF7A6FD002801D0FDF7BCF860780028CB
:10EC1000FCD00820E860FEBDF41F00200005005075
:10EC20006CED0100F0B591B0342102A8FCF79DFA1B
:10EC300000252C462F460C20FEF76CFF002802D141
:10EC40000720FCF703FF0C20FEF764FF002854D1D7
:10EC50000520FCF7FBFEC0B210900620FCF7F6FE84
:10EC6000C0B20F900720FCF7F1FEC6B201970096E4
:10EC7000214628460F9B109AFFF7AAFF0520FEF7B2
:10EC80002BFCFF2D30D0FC2C33D0E41CE4B2109AC6
:10EC90001BA01146FCF7DAFC1DA102A8109AFCF794
:10ECA000E5FC0F9A1CA01146FCF7D0FC02AA1EA19D
:10ECB00010460F9BFCF7DAFC324611461CA0FCF70D
:10ECC000C5FC02AA33461EA11046FCF7CFFC1EA0CD
:10ECD000FCF7BCFC142202A91C48FDF7E7FCFF204E
:10ECE000F530FEF7F9FBAEE7002F06D1012700252E
:10ECF00001E06D1CEDB20024C9E711B0F0BD0000C9
:10ED0000414443353A25642025580D0A000000008F
:10ED1000313A25640A000000414443363A25642014
:10ED200025580D0A000000002573323A25640A00B8
:10ED3000414443373A25642025580D0A000000005D
:10ED40002573333A25640A000D0A0000842300204D
:10ED5000001002000B000000090000000800000085
:10ED60000A0000000000000000E0D7010030004071
:10ED700000000000010000000200000000009801F7
:10ED8000010000001516171811121314A0230020FB
:10ED9000C0230020EC2300201100030069C80100FB
:10EDA0001200030069C801001300030069C80100D4
:10EDB0001400030069C80100B82500209ECADC24A5
:10EDC0000EE5A9E093F3A3B50000406E00000050EB
:10EDD000010000000000000000000000FFFFFFFF36
:10EDE000FFFFFFFFFFFFFFFFFFFFFFFF000000002F
:10EDF0000000000000E0D701030000001CEE01004D
:10EE0000E81F0020C8000000AEB60100E4EE0100DB
:10EE1000B0200020800E0000BEB601000000FFFF01
:10EE200001000200000000000000000000000000DF
:10EE300000000000000000000000000000000000D2
:10EE400000000000000000000000000000000000C2
:10EE500000000000000000000000000000000000B2
:10EE600000000000000000007825002000000000E5
:10EE700098250020000000000000000000000000B5
:10EE80000000000000000000000000000000000082
:10EE90000000000000000000000000000000000072
:10EEA0000000000000000000000000000000000062
:10EEB00000000000002000400000000000000000F2
:10EEC0000000000000000000000000000000000042
:10EED0000000000000000000000000000000000032
:04EEE0000024F40016
:040000050001B0C185
:00000001FF
