:020000040001F9
:10B00000002D0020D5B00100EFB00100F1B001002B
:10B010000000000000000000000000000000000030
:10B02000000000000000000000000000F3B001007C
:10B030000000000000000000F5B00100F7B00100C2
:10B04000C1B30100F9B0010011B5010035B4010030
:10B05000F9B001000000000005B20100A5B1010037
:10B06000F9B00100F9B00100F9B00100F9B0010038
:10B07000F9B00100F9B00100F9B00100F9B0010028
:10B08000F9B0010015B40100F9B00100F9B00100F8
:10B0900049B40100F9B0010051B40100F9B0010058
:10B0A000F9B00100F9B0010000000000000000004C
:10B0B0000000000000000000000000000000000090
:10B0C0000348854600F05CF80048004791CA01003B
:10B0D000002D00200321094802680A430260084845
:10B0E00002680A4302600748804707480047FEE7B6
:10B0F000FEE7FEE7FEE7FEE7FEE70000240500406E
:10B100005405004071B40100C1B0010030B50B46D8
:10B11000014600202022012409E00D46D5409D4231
:10B1200005D31D469540491B2546954040191546B7
:10B13000521E002DF1DC30BD03460B439B0703D0AC
:10B1400009E008C9121F08C0042AFAD203E00B78EC
:10B150000370401C491C521EF9D27047D2B201E064
:10B160000270401C491EFBD270470022F6E710B562
:10B1700013460A4604461946FFF7F0FF204610BD65
:10B18000064C0125064E05E0E36807CC2B430C3C3A
:10B1900098471034B442F7D3FFF796FF68E20100F6
:10B1A00088E20100FEB5134C0026E0680125124F2D
:10B1B000002810D000F0EEF900280BD00120B86074
:10B1C00068460670E0680190217C68460181A5749C
:10B1D00021688847FEBD094806600120B86008481C
:10B1E000066069460D7080688880A574684621688D
:10B1F000EFE7000058240020007300400071004079
:10B2000000750040F0B50024FF268BB00136012503
:10B2100027460694304601F087FF002807D054489F
:10B220004068284203D0304601F076FF2C43361D9B
:10B230006D007F1CB6B2042FECD3FF257D35284668
:10B2400001F072FF002809D0284601F065FF680769
:10B25000044306AA0121002001F04AFF454D2007C2
:10B2600014D00127002627420CD04348B200111801
:10B2700008690969C004C00E8903AA58890F002A09
:10B2800000D090477F00761C042EECD3002C6DDAA2
:10B2900000200890401E63E0281940300778B90666
:10B2A000890E009100214156491C49D009A90098F6
:10B2B00001F069FD002843D0B8090190009801F021
:10B2C00019F980002F580198002F02D0032802D0CE
:10B2D0000DE0032834D1009808ABC208410794461A
:10B2E000985C490F01228A401043624698540098A6
:10B2F000052109078000401807210902401800684D
:10B3000006A98003800F0290009801F03CFD002800
:10B31000029802D0022802D012E0032810D101982E
:10B32000032808D1029802281ED00221009801F0BB
:10B33000A1FE761CF6B2002F02D001990098B84702
:10B34000641C042CA8D3002E10D06A4601210020D2
:10B3500001F0CEFE06990098884207D00690089822
:10B3600000263446099097E70321DFE70BB0F0BDD4
:10B3700000630040F4230020006500408307FF22A3
:10B38000DB0E9A408907090E994000280BDA000766
:10B39000000F0838830808489B001818C3699343B6
:10B3A0000B43C3617047830804489B001B1818684F
:10B3B000904308431860704700ED00E000E400E0AF
:10B3C000F8B5FF20013001F0E6FC002401250E4E07
:10B3D0000E4F002807D00E4804600120B0607D7039
:10B3E000002001F08FF8FF20053001F0D4FC002888
:10B3F00008D00748001D04600220B060BD70012025
:10B4000001F080F8F8BD000000030040E0230020B8
:10B410000001004010B506490020086048608860BF
:10B42000C860034940390860486002F02BFA10BD3B
:10B430004011014010B50249024801F0DBF910BD8E
:10B440006C2400200030004010B502F08DF910BDD2
:10B4500010B506484068002805D08047002801D074
:10B4600000F064FA10BD01F085F910BD84200020C1
:10B4700010B501F023FA002805D01F491D48486087
:10B48000C8131E4988611E48018CC9B201290BD11D
:10B49000828C120708D1028D1206120F042A03D1E2
:10B4A000828D1206120F0AD0012921D1818C090741
:10B4B0001ED1018D0906090F0A2904D007E0114A9F
:10B4C00001219160F5E7828D1206120F05D00D293A
:10B4D0000ED1808D0006000F0AD10B4801680129AA
:10B4E00004D00A49016001680129FCD1C0214161F1
:10B4F00010BD0000DFFF07C000050040006C0040E9
:10B50000C00F00F00006004000EC064075930000FC
:10B5100010B50249024802F05AFC10BD3C2400203C
:10B520000020004030B47446641E2578641CAB4291
:10B5300000D21D46635D5B00E31830BC184702E093
:10B5400008C8121F08C1002AFAD1704770470020AE
:10B5500001E001C1121F002AFBD17047202804DA44
:10B56000012181400348014201D0012070470020A1
:10B5700070470000FC06FFBC202804DA012181404E
:10B580000348014201D001207047002070470000AD
:10B59000FC06FFBC70B514490020124B086013492B
:10B5A00008608C681248427CC5685600521CAC5337
:10B5B000D2B24274047CA24212D28468002264682F
:10B5C000002C0AD0012284602068486001200860B5
:10B5D000002A00D01860002070BD44688460F3E742
:10B5E000012070BD007000400071004000750040F7
:10B5F00058240020F8B500252D4C052805D0062834
:10B6000005D0072805D00020F8BD2A4802E02A48C6
:10B6100000E02A4860602A4901204860294A002148
:10B62000116020600720FFF799FF224E8027F61F48
:10B63000002802D02448076002E0304600F076F986
:10B640000720FFF78BFF002814D020480168032251
:10B650000902090A9207114301600720FFF77EFFE4
:10B6600000280BD01A48416800290BD00168B94363
:10B67000016009E0304600F059F9EEE7304600F08D
:10B6800055F901E0134807600E4A00201060124B84
:10B690000121196001E06D1CEDB21668002EFAD090
:10B6A000C82DF8D81060A068596080B2F8BD0000BD
:10B6B00000750040082000000840000008800000DD
:10B6C000007300400071004080E200E004E400E00C
:10B6D0007C20002080E100E000700040F7B584B0DD
:10B6E000064600251788158020300290407B1446BE
:10B6F000002806D03A462146059800F005FC0500D2
:10B7000009D1B078002823D0059886462088001DEE
:10B71000B84202D90C2007B0F0BD684679DF002896
:10B72000F9D1218803207246505420881921401CE9
:10B7300080B22080115420887146401C80B2208045
:10B7400041186846008802F0D6FB21884018208006
:10B75000F078002817D0218803230A46F356C91C25
:10B760000598B942D6D80221815421880122491C6A
:10B7700089B2218042542188491C89B221804354D6
:10B780002088401C20807068002817D02188002362
:10B79000C3560A46C91C0598B942BBD80221815438
:10B7A00021880A22491C89B2218042542188491CDF
:10B7B00089B2218043542088401C20803089002891
:10B7C0000AD0009430460197062202210830059BDA
:10B7D00002F0F8FB05009ED1308A00280AD00094C0
:10B7E00030460197072203211030059B02F0EAFB47
:10B7F000050090D1308B00280AD000943046019784
:10B80000152214211830059B02F0DCFB050082D1C3
:10B81000306A002806D03B462246059900F0DAFE41
:10B820000500D8D1706A002806D03B46224605990B
:10B8300001F026FA0500CED10298007B002807D03F
:10B840003B4622463046059901F07EFE0500C2D1F6
:10B850003078002807D03B4622463046059901F053
:10B8600043FA0500B7D1284655E70000174A0021E2
:10B87000535C002B01D0012203E0491C0629F7D3B9
:10B8800000221349012806D002280BD0032810D02B
:10B89000042818D112E04878002803D0002A01D0EB
:10B8A000012070478878002803D0002A01D00220A8
:10B8B0007047C878002801D0032070470879002815
:10B8C00001D0042070470020704700002D20002088
:10B8D000F821002010B501220221002000F0E2FC36
:10B8E000002801D0072812D107220221012000F0F0
:10B8F000D9FC002801D0072809D100210A220846D6
:10B9000000F0D0FC002801D0072800D1002010BD95
:10B91000BFF34F8F04490348C860BFF34F8F00BF88
:10B92000FDE700000400FA0500ED00E00EB500217F
:10B93000029000916A4601910148FFF7E9FF0EBDB0
:10B94000014000000A4B5B68002B07D0002A07D09B
:10B95000002805D00068037C002B03D00820704726
:10B9600007207047002303744174426118467047F2
:10B9700068200020FFB507469007002581B01E46CD
:10B980001446002825D1002C23D001F00DFD3046AF
:10B99000114EF0603046103005704570029981708C
:10B9A00044607560357001240C487570240504608E
:10B9B00003211420FFF7E2FC09480460094CA7604A
:10B9C00003211120FFF7DAFC6068B060002005B0A9
:10B9D000F0BD0720FBE700005820002080E200E0D7
:10B9E00000E100E000150140FEB51F4B5B68002B35
:10B9F00030D000282ED0052901D20720FEBD436992
:10BA0000002B27D0437C012B26D00027029104462F
:10BA10000025694616460D70684600F03DF801A8FD
:10BA200002F0BAFA002819D0012101700F494460D0
:10BA300049688160029907614661C16068460A49A8
:10BA4000007948706846007800F044F801F0CEFEB6
:10BA50002846FEBD0820FEBD0F46D7E768460425F0
:10BA6000007800F037F8F3E7682000200015014067
:10BA700010B50849496800290AD0002808D0416952
:10BA8000002905D000210174022101F0D7FE10BD6C
:10BA9000082010BD6820002030B5EFF3108172B689
:10BAA000094A54680123002C04D00370002900D1F6
:10BAB00062B630BD5360054B1D68054C25401560CE
:10BAC0001C6000220270F1E77C20002080E100E091
:10BAD000FC06FFBC08494A68002A0CD000280AD19D
:10BAE000EFF3108072B60A68044B1A6000224A60B5
:10BAF000002800D162B670477C20002000E100E001
:10BB0000F0B50C4693B01F216A4611800726002726
:10BB10009180002809D0C17849070DD502A9FFF707
:10BB2000DDFD002809D102AD01E000251780002CC1
:10BB30000ED0E078002802D0304613B0F0BD01AA44
:10BB40000AA92046FFF7CAFD0028F6D10AAA02E09A
:10BB500068460022878068468088C3B268460088AD
:10BB6000C1B2284672DFE8E7FFB581B01E460A9FE2
:10BB70001346040047D0002B45D0504D01202870BB
:10BB80000020E870202219464D48FFF7D5FA002022
:10BB90006F61C0432E612881284607211830FFF7C6
:10BBA000E4FA47483C212030FFF7DFFA4448217887
:10BBB00020300170A1788170E178C17061784170A6
:10BBC0003F4A656923695563114613632031E36871
:10BBD000A268CB608A603A49E369A269CB638A6351
:10BBE000616A00291AD001463C310246483241625E
:10BBF0008A60636A1B880B80616A436A89889980BE
:10BC00000021436A07E00E2005B0F0BD656AAD680B
:10BC10006D5C5554491C9D888D42F7D8A16A002956
:10BC20001CD0274A943211460C398A608162A36A7B
:10BC30009B888B80A16A836A098819800021836AA6
:10BC400004E0A56AAD686D5C5554491C9D888D4221
:10BC5000F7D82C210A5D1A4940310A73216A00295C
:10BC600009D016490A310162226A52884A80216A43
:10BC7000026A098811806168002900D04160104A79
:10BC80000E490020B3322031C3001B1A85009B18D7
:10BC90000C68401C63510828F6DB094A0020EB328F
:10BCA000030185009B188C68401C63510828F7DB52
:10BCB000034802992030FFF723FFA5E71420002056
:10BCC000F821002010B50188134C102915D0112936
:10BCD00019D01B2910D1007A00280DD1E078052158
:10BCE000401CFFF713FA084600F018F8002803D0AC
:10BCF0006169002900D0884710BD817D0129FBD1F1
:10BD00008088208110BD002161718088218988424E
:10BD1000F8D10120E8E7000014200020F1B53F4CE5
:10BD200088B0207800280AD00898E07006A800F0B3
:10BD3000EDFC06980125002804D065706AE0082013
:10BD400009B0F0BD3548002707211830FFF70DFA7C
:10BD5000334E7078002802D0E078012807D0B07800
:10BD600000280CD0E078012801D0022807D12169F1
:10BD7000002903D025710820884700E02771089822
:10BD8000FFF774FDE0702169002909D0032801D074
:10BD9000042805D13078002802D06079002811D01D
:10BDA000A77118216846FFF7E0F968460770077227
:10BDB000E1781A480B001830FFF7B4FB052E080F86
:10BDC000191D2000A57107208847EAE7A57001909A
:10BDD000684605704782078213E00221A170019036
:10BDE00068460570B18941823189018209E068465F
:10BDF00001F0F2FB02E0684601F01AFCE07800284E
:10BE000003D0684673DF00289AD12169002901D048
:10BE1000A0788847002093E7A770F6E71420002059
:10BE2000F821002070B5054601461C220E48FFF798
:10BE300083F90E4C002626702968002906D00822B6
:10BE4000201DFFF779F9201D7ADF02E00748001D69
:10BE50007BDF002807D1401E60806670044A002105
:10BE60000448FFF76FFD70BDC4230020442000206C
:10BE700035DF010050E20100F8B5214C014602888F
:10BE800000261E48E589102A13D01E4F112A1FD004
:10BE9000122A2BD0502A1AD1881DC988A94216D13E
:10BEA0004189022913D10C3000F0FEF800280CD192
:10BEB00012E08A8804464280104808220C3018316B
:10BEC000FFF73AF96670002D01D100F0CBFBF8BD09
:10BED0000021C943418046703868FFF7C9FD00283A
:10BEE000F5D0A1690029F2D08847F8BD034808229F
:10BEF0000C300831FFF720F9E7E70000442000206C
:10BF0000C423002050E201007CB5054608880C4699
:10BF10000930904201D90C207CBD684671DF0028B1
:10BF2000FAD121880820685420881B21401C80B247
:10BF300020802954208800A9401C80B2208040190C
:10BF400006220131FFF7F8F820886946801D80B28B
:10BF500020800978002900D0012129542088401C24
:10BF6000208000207CBD000010B50446FFF784FF50
:10BF70002146064800F040F8204601F03DF92046F1
:10BF8000FFF7A0FE204600F0F5F810BD702100205C
:10BF900030B5184B0D4604000FCB85B003936B46AC
:10BFA00007C324D0002D22D00020C043A0822868DF
:10BFB000A0610020A0752146684663DF002814D1E7
:10BFC00021786846817401210182A21C04A9012004
:10BFD000A0DF002809D12946204601F01AFA0028DE
:10BFE00003D12946204601F0A6FE05B030BD0E2043
:10BFF000FBE7000054E2010010B500281BD0002927
:10C0000019D00A88102A17D0112A17D0502A12D115
:10C0100004468A1DC888238A1231984202D1538966
:10C02000022B0FD0A388984205D1A369002B02D020
:10C0300052892046984710BD898801E00021C943F4
:10C04000818210BD084600F02FF8002800D00120A2
:10C05000A07510BD07B584B000280DD0828A114BA1
:10C060009A420BD0827D002A08D06A46128B142A8D
:10C0700006D9072007B000BD0E20FBE70820F9E72E
:10C080000022009201920292039282896B461A80EA
:10C09000039106A9029101219970808A6946A6DF61
:10C0A000E8E70000FFFF0000417802780802104333
:10C0B000C007C00F704700000149085C70470000CE
:10C0C00020E2010005490B5C05494A6801209840BF
:10C0D000034693438B601040C86070471CE2010028
:10C0E0000005005010B50349085C012100F0F4FF81
:10C0F00010BD00001CE2010010B50349085C0021DE
:10C1000000F0EAFF10BD00001CE201000549095CD7
:10C1100005484068C840C007C00F00D00120012179
:10C12000484070471CE201000005005010B5002493
:10C130002046FFF7D7FF641C042CF9D310BD10B5BF
:10C1400000242046FFF7D8FF641C042CF9D310BD4F
:10C150000246002010B5C043054B00215C5C9442B0
:10C1600001D1084610BD491C0429F7D310BD0000B9
:10C1700020E2010010B51C4C0188606810290DD028
:10C1800011290AD1401E606007D1FFF7A3FB0028E8
:10C1900003D02168002900D0884710BD00281ED197
:10C1A00000210122084600F07DF8002801D0072870
:10C1B00011D107220221012000F074F8002801D0DB
:10C1C000072808D104220221002000F06BF8002883
:10C1D00005D0072803D02168002900D0884760686F
:10C1E000401C606010BD00000C20002010B5002035
:10C1F00000F04AF9002801D0062807D1012000F0FC
:10C2000043F9002801D0062800D1002010BD00000D
:10C21000F3B581B00D460198FFF79AFF0446042854
:10C2200013D21D481D4F1E4E002D27D0012D0DD0BD
:10C23000022D0AD160002018C0194578002D04D0C5
:10C24000F168002901D028468847FEBD61006118C9
:10C250007D5CCF19797800290BD071680A2251438F
:10C260000F4A8068921CFFF7BFFB002801D101989C
:10C27000B0700B48B97810300155DFE78068FFF7E0
:10C28000F7FB0748610061181030C919005D8D780F
:10C29000A842D3D0FEBD000024E20100CC21002042
:10C2A000F81F002070B50023042811D2440004199F
:10C2B0000D4D012A02D101290DD00022460080191E
:10C2C000094E801900290CD0012906D0022906D078
:10C2D0000723184670BD0E30C2B22A55F9E74270E6
:10C2E000F7E78270F5E70000CC21002010B5054A81
:10C2F0000146127A0020D20702D0084600F004F866
:10C3000010BD0000F81F0020F8B55D4C05466078B0
:10C310000026002803D000206070FFF707FF0120EF
:10C32000584F2B00FFF7FEF818970D0D2E3D4A5F72
:10C3300064686F686FA97777777777979A9DA0A9D8
:10C34000A9950020FFF7E2FE00280AD00020FFF7A1
:10C35000C9FE022D02D1E120C0000BE07D2040018A
:10C3600008E00020FFF7C8FE022D01D1C82001E03F
:10C37000FF20913025706421FEF7C8FE61684143BB
:10C3800000222BE00020FFF7C1FE002805D000208E
:10C39000FFF7A8FE19204001ECE70020FFF7ACFEF4
:10C3A000E4E70020FFF7B2FE002803D00020FFF7EB
:10C3B00099FED3E70020FFF79FFED9E70020FFF7A3
:10C3C000A5FE002803D00020FFF78CFE02E000202D
:10C3D000FFF792FE25706068410000223868FFF781
:10C3E00003FB064635E00020FFF76CFE257007E0F2
:10C3F00000203FE025702CE060700120FFF762FE16
:10C4000000226168EAE760700120FFF75BFE606868
:10C4100081004118E1E77868FFF72AFB0646112002
:10C42000401B01D0002E03D00220FFF75BFE10E07E
:10C4300001280BD9C82148436421FEF767FE6168D3
:10C44000002241437868FFF7CFFA06460220FFF743
:10C4500053FE3046F8BDFFF769FECBE7FFF766FEF7
:10C46000C6E7FFF763FE04E0FFF760FE0020FFF77A
:10C4700043FE0120FFF740FEBCE7FFF760FEB9E78F
:10C48000F81F002024E2010010B5FFF715FE03217C
:10C4900000F0DFFD002010BD70B500240C2000F07E
:10C4A00003FE002821D00E2000F0F6FD0D2000F044
:10C4B000F3FD0E4D08E00120641C00F075FCAC4259
:10C4C00002DD0D2000F0F8FD0C2000F0EDFD00284D
:10C4D000F1D10748AC4203DD022181600D2002E06A
:10C4E000012181600E2000F0E7FD70BDB80B000057
:10C4F000E81F002002490918202008567047000054
:10C50000F423002070B5084C050009D010342168D0
:10C51000002907D008682060496828468847F6E760
:10C520000834F4E770BD0000E0230020F8B523488C
:10C53000416800293ED00E6821494C6887688078A0
:10C54000E11B0D022D0AED1C002814D101201D4A0B
:10C55000000450601B4A403A50601B49400008608C
:10C560001A4908601A49012008602F2000F04EFC8B
:10C57000124901208870B54200D23546E819000200
:10C580000F4B000A403318600D4A5168001B091B0D
:10C590000902090A0002000AC91C814209D950682F
:10C5A00018602F2000F032FC012007494004803938
:10C5B0000860F8BD00F0F8FEF8BD0000582000202B
:10C5C000001501404013014080E200E000E100E07E
:10C5D00000100140F8B50646108814468446801DB8
:10C5E0000D46984201D90C20F8BD32880720062A52
:10C5F000FAD31927FF01184BBA4201D99A42F3D155
:10C6000071880629F0D3B94201D99942ECD19A42F6
:10C6100003D0994201D08A42E6D8052160462954C8
:10C6200020881221401C80B2208029542088401C80
:10C6300080B220804119308801F05DFC21884018CB
:10C6400080B220804119708801F055FC2188401883
:10C6500020800020F8BD0000FFFF000010B5FFF7AC
:10C6600065F910BDF8B5164800F01AF9144D00260A
:10C670000C3D144C002807D0616900291CD0012012
:10C680006A461070684616E02878002805D061696F
:10C69000002911D0684606700DE0687800280DD09A
:10C6A000A168094800220068FFF79EF9002803D01E
:10C6B000A169002900D088472E70F8BD6168F0E7B5
:10C6C00050200020C423002050E2010010B50E4984
:10C6D00000230A784C78A24212D0521CD2B20A70BF
:10C6E000022A00D10B700A78074B920018339A582F
:10C6F0000260886810180002000A8860012010BDDE
:10C700000360002010BD000058200020002804D045
:10C710000349496E01600020704703207047000004
:10C720009424002008B5FD20694608700720FEF714
:10C7300061FF322801D810200EE00146323932293B
:10C7400001D2112008E001466439322901D21220B9
:10C7500002E0962802DB13206946487002226946EF
:10C760000348FFF777FC142000F01EFB08BD000013
:10C7700070210020F8B51E4C2078002836D0E068E3
:10C78000002600280CD00025607800282ED16846AD
:10C7900052DF052806D0002806D0FFF7C7F80BE0C7
:10C7A0000125F1E7012607E0009800F085FB2169EB
:10C7B000002901D000988847002D13D16078002807
:10C7C00014D1608869460880A06861DF052804D01C
:10C7D000002804D0FFF7AAF804E0012502E0E16890
:10C7E000A0688847002ECFD0002DE5D0F8BD00000E
:10C7F000842000207FB50C460D462035064669781A
:10C8000028780191009022462632D11E3046E369F5
:10C8100001F069F9002819D1E87800281DD1207BA2
:10C82000022801D0032818D12269E169914214D16C
:10C830006269E261E37B2B70217E8906C90F697012
:10C84000032804D03146204601F0E6F87FBD009170
:10C850003146204601F0CCF97FBD20460C3007C898
:10C8600001AB07C3E878002100280ED00920C001E1
:10C870003218506C5064820701D5012002E0400755
:10C8800005D502206A46107001E0684601702971E2
:10C89000207E4007E0D422686846616890477FBDEB
:10C8A000418805480288914204D34088814201D8DA
:10C8B0000120704700207047482000201048018C5C
:10C8C000C9B2012917D1818C090714D1018D09063C
:10C8D0000A0F03D1828D1206120F0ED0090F012903
:10C8E00003D1828D1206120F07D0032903D1808D48
:10C8F0000006000F01D000207047012070470000A3
:10C90000C00F00F01CB5002100910B4601220191DF
:10C910000E20114600F080FB0E2000F0BDFB0D2024
:10C9200000F0BAFB1CBD0000F0B5284C21461039C0
:10C9300048688B68227886469C46CF78667836E0D1
:10C94000182353436168521CC918A378D2B293428A
:10C9500000D100220B78022B02D0032B27D123E039
:10C9600003464D68194603E0A94204D00B46C96945
:10C9700000291CD0F8E7002919D08B4208D1C069E2
:10C98000002805D1124F0125BD600025AC460127C6
:10C990000D68C969D961002909D00B685B190B6062
:10C9A00005E00174C06900E000210028F9D1964239
:10C9B000C6D10649624610398A604860CF7070451A
:10C9C00001D00120F0BD0020F0BD00006820002053
:10C9D00000100140F8B52C4E044670680025009008
:10C9E00041E0002C02D02046E46920E026481823CC
:10C9F0001030017842684B43491CC9B2D21801700B
:10CA00008378994200D105701178506801292CD1A2
:10CA1000017C002929D191684160D1688160116948
:10CA2000C16051698161F178002900D04560436897
:10CA3000B268164F991A0902090AB94202D28268ED
:10CA4000891806E0D11A09028268090A8A4202D9C5
:10CA5000511A016000E005604560012185600174A4
:10CA6000C56100F0CBFE002CBBD107481030017827
:10CA700040788142BAD171680098814201D001208A
:10CA8000F8BD0020F8BD000058200020FFFF7F0007
:10CA9000A8B0FFF737FF0021042000F0D1FA0021F1
:10CAA000052000F0CDFA0021062000F0C9FA01218E
:10CAB0000C2000F0C5FA00F081FF0023664A052132
:10CAC0001846FEF757FF002801D0FEF72FFF6348F6
:10CAD000614900680590002348225C3905A800F0F0
:10CAE00011FE002801D0FEF721FF6A460121002037
:10CAF00000F0F0FD002801D0FEF718FF684600F0B6
:10CB0000DFFD002801D0FEF711FF554800F0CEFDF3
:10CB1000002801D0FEF70AFF11206946087206229C
:10CB200050A102A87CDF002801D0FEF7FFFE002400
:10CB3000009410216846019401803C214180FF212E
:10CB400084809131C1807ADF002801D0FEF7EEFEAB
:10CB500046480090404869467830FFF719FA0028A7
:10CB600001D0FEF7E3FE3C2101A8FEF7FEFA022108
:10CB70006846017184710621C1713C2110A8FEF73D
:10CB8000F4FA012510A805823948159020211FA824
:10CB9000FEF7EBFA18A8C577402000942390249460
:10CBA000344B1FAA10A901A8FEF7DEFF002801D010
:10CBB000FEF7BCFE1C216846FEF7D7FA0520C0032D
:10CBC00001900F2000040290009403216846017335
:10CBD000C481047428480590284806906846FFF7E9
:10CBE00021F9002801D0FEF7A1FE0320FFF796F8F7
:10CBF000002801D0FEF79AFE1D4E0024361FFFF7D5
:10CC00004BFCB068002806D0012815D0022818D0A7
:10CC100003281CD11AE001F073F900F065FB0A2C1F
:10CC200002DD0E2000F048FA142C03DD0E2000F087
:10CC300033FA0024641C0AE001F062F901F068FA9A
:10CC400005E001F05DF900F057FB00E0B5606420FD
:10CC500000F0AAF8D3E70000F820002000E201006D
:10CC600069BF01004453502D4254000061D10100BE
:10CC7000EC1F0020D9D10100C9D201005DC601001E
:10CC800070B5144682880E4605462088111D41184D
:10CC9000921C994201D8FE2A01D90C2070BD521C69
:10CCA00032542088FF21401C80B2208031542088DB
:10CCB000401C80B220808119288801F01CF921884D
:10CCC000401880B22080AA88002A09D0A9680029CB
:10CCD00008D08019FEF730FA2088A98840182080F3
:10CCE000002070BD072070BDF8B50F4601781446CE
:10CCF0000546012902D16878002806D02088821CC8
:10CD00009A422DD8012902D006E00720F8BD6978A3
:10CD10004118891C994223D8181A801E86B2684689
:10CD200006802188B81C081869467DDF0028EDD1EF
:10CD30002878022805D169460988B14201D809211D
:10CD40000AE00821012805D16878B04202D86A4675
:10CD5000108001E06846068068460088FE2801D9F8
:10CD60000C20F8BD2288401CB8542088401C80B29A
:10CD70002080395420886946401C2080098840184A
:10CD800020800020F8BDC20843075B0F0120895CAA
:10CD90009840084070470121890740180068002822
:10CDA00000D00120704700007D21C90048430FD00A
:10CDB0000849094A096800BF00BF00BF00BF00BFA3
:10CDC00000BF00BF00BF914200D000BF0138F2D1C8
:10CDD00070470000982000200024F40000280FD0A5
:10CDE0000849094A096800BF00BF00BF00BF00BF73
:10CDF00000BF00BF00BF914200D000BF0138F2D198
:10CE000070470000982000200024F40000280FD074
:10CE10000849094A096800BF00BF00BF00BF00BF42
:10CE200000BF00BF00BF914200D000BF0138F2D167
:10CE300070470000982000200024F40070B50E4CCC
:10CE400000252078002801D0852513E00021A1606D
:10CE500061602161E160094800680126304002D12B
:10CE6000032100F02FF800F079FC002801D10448DC
:10CE700086612670284670BDE023002000E100E0B6
:10CE80000005004038B50020694608706846FEF786
:10CE900003FE084C2078002801D1FFF7CFFFE0689F
:10CEA000401CE0600120A07068460078FEF712FE8A
:10CEB00038BD0000E023002010B5002801D1FFF7A5
:10CEC00021FB10BD8207D30EFF229A408907090E6D
:10CED00010B5994000280BDA03071B0F083B9C088C
:10CEE0000C4BA400E318DC6994430C43DC6107E0BD
:10CEF0008408094BA400E418236893430B43236080
:10CF0000C106C90E01208840044908600449086030
:10CF100010BD000000ED00E000E400E080E200E071
:10CF200000E100E0017928225143054A0068891890
:10CF300005221302C0180260022020318870704759
:10CF40006C240020F8B507460C4600792821484398
:10CF50001B4945182E462036B078002801D00820FD
:10CF6000F8BD0CC50020286070713071A07BF07195
:10CF7000607B083D002802D0204600F0C3FC2168F9
:10CF800010488A00104952181060626892005118C7
:10CF90000860052338681B0206CCC0188160C26097
:10CFA000216841622868083C002805D03868217B48
:10CFB000000B40B2FFF786FF0120B0700020F8BDE3
:10CFC0006C2400200C060000000700503EB5002530
:10CFD000069C009502956D466970AB700192002C1D
:10CFE00001D0202200E00022294600F001F83EBDD9
:10CFF00070B50D46017928235943064BCC1891078B
:10D0000001D0062070BD134601682A46204600F074
:10D010003DFE70BD6C24002070B552000A4399009B
:10D02000049D0A432902059E0A43310405240A434C
:10D03000240780000721001909024018026070BD12
:10D040001CB500220B46009211460192FFF7E4FF47
:10D050001CBD05221207800082180720000210184C
:10D06000026803231B049A430260026809040A430E
:10D070000260704705221207800082180720000214
:10D080001018026803231B049A4302600268090413
:10D090000A43026070470000012181400148C160DD
:10D0A000704700000005005002490969C140C807E7
:10D0B000C00F704700050050012181400148816088
:10D0C0007047000000050050012181400148816047
:10D0D00070470000000500500122824003480029EB
:10D0E00001D082607047C2607047000000050050A8
:10D0F00038B5084B05241B68009324026B46411881
:10D1000005E085005D592D192D69401C20C2814222
:10D11000F7D838BD64E201000249401800210160DF
:10D120007047000000600040034940180068012873
:10D1300000D00020704700000060004040580028E8
:10D1400000D0012070474058002800D001207047CF
:10D150000322120280184068084000D00120704766
:10D16000F7B5002516462F461A4C30E00198007896
:10D17000302827D0002825D0312816D0012814D0F7
:10D18000322814D0022812D0332812D0032810D00D
:10D19000352811D005280FD0362810D006280ED0FB
:10D1A000392811D009280FD010E0012002E0022018
:10D1B00000E00320A06009E0FFF7B4FA06E0A068F1
:10D1C000022803D1A76001E000F09AFE6D1CB54271
:10D1D000CCD3FEBDE81F002010B5002809D00328DD
:10D1E00006D10220FFF782F8002801D0FEF79EFB4F
:10D1F00010BD00F047FA10BD70B50446314D0088EF
:10D200006E8888B03A2838D00DDC022839D0102832
:10D2100013D011281AD0132822D100231A468521B1
:10D2200030467FDF26E051282FD052281DD05528C8
:10D2300016D1A088132176DF1CE00720FFF756F8EF
:10D24000002801D0FEF772FBA08808E00020FFF75D
:10D250004DF8002801D0FEF769FB0020C04368802C
:10D2600008B070BDFEF762FBFAE700231A461946C4
:10D270003046A9DF0028F5D1F2E7A088132176DF38
:10D28000F8E7A088002167DFF4E71022A11D04A8B9
:10D29000FDF752FF6846017C0029E1D0007E04289A
:10D2A00003D0062801D00528DAD1022908D00120B0
:10D2B00069460870FF2083308880A088A8DFD9E7FE
:10D2C0000220F5E7E81F002010B50078002807D1FC
:10D2D00004483B21408876DF002801D0FEF726FB7A
:10D2E00010BD0000E81F002010B548DF002801D065
:10D2F000FEF71CFB10BD0000F0B5C3B000240D20EC
:10D300000194FFF7D9FE7D20C000FFF74DFDFD2001
:10D310006946087001222248FEF79CFE6420FFF750
:10D3200043FD204E002002AD2854401CFC28FBDBAE
:10D330000C20FFF7B9FE002802D1B068022804D003
:10D340000D20FFF7A9FE43B0F0BD0027122078435F
:10D35000411912221248FEF77DFE1420FFF724FD2A
:10D360007F1C0E2FF2DBFF2C02D0641CE4B2DFE73F
:10D370000198002810D07D20C000FFF715FDFE2089
:10D380006946087001220648FEF764FE6420FFF734
:10D390000BFD0020B060D3E7012000240190C7E717
:10D3A00070210020E81F002070B501240B496004A3
:10D3B00008600B4940108860094940398860094D70
:10D3C0006C602F20FFF722FDAC60074D00242F205A
:10D3D000AC60FFF71BFDAC7070BD000080E100E0A9
:10D3E00040130140001001405820002030B5FF22BA
:10D3F0000523CD7D002409321B02C318002D845063
:10D40000986905D04B7ECA68D054487E401C487647
:10D4100030BD70B500240546601C90B00007000FB9
:10D4200008A9103008940870601C0007000F103025
:10D4300048708878F9263040801C88701C2101A82B
:10D44000FDF793FE69460879102108436946087183
:10D45000029408A80494059407940690287808A9D3
:10D4600088710320694688841120009408704870F0
:10D470008878F7213040801C0840EF2108400126C1
:10D4800030436946887014210AA8FDF76EFE09A88A
:10D490000A9068460B9069460E8614204C86888652
:10D4A0002B4668880C330AAA01A9A2DF10B070BD10
:10D4B0001FB501246B461C701972019206C868469C
:10D4C00090471FBD10B50446FEF756F800280CD053
:10D4D000A007C00E002C0ADA2107090F08398908B5
:10D4E000144A89008918C96906E0134810BDA108CB
:10D4F000124A890089180968C1400806800F04286B
:10D5000011D200280FD002280DD00D494B68E20639
:10D51000D20E01209040002B08D0620992008B5857
:10D5200003438B5004E00448401C10BD05490860CB
:10D53000002010BD00ED00E00120000000E400E04C
:10D540007C20002000E100E0FFB50746806A81B042
:10D55000144600283DD0002538462030009033E0A6
:10D560000C20B96A68430E18B088801CFE2802D9C6
:10D570000C2005B0F0BD22880299401C88542088F8
:10D580001622401C80B2208002990A542088401C38
:10D5900080B2208002994118308800F0ACFC2188CC
:10D5A000401880B22080B288002A0AD0B1680029D1
:10D5B0000FD0029BC018FDF7BFFD2088B18840182E
:10D5C00020806D1C0098EDB2007BA842C8D80020D6
:10D5D000CFE70720CDE7000070B504461248134D91
:10D5E000018A2182818A61820078002818D06879B6
:10D5F000002815D100F056FD002811D02846203013
:10D60000E06002200849207204202031C8700648DA
:10D6100000212030FEF774FA002804D1052000E034
:10D620000320A870002070BDF821002014200020E5
:10D6300070B5044611480426018B2182818B6182DA
:10D6400000780F4D002816D06879002813D100F01B
:10D6500029FD00280FD028462030E06002202072EB
:10D66000064800212030C670FEF74AFA002804D18F
:10D670000620A87000E0AE70002070BDF8210020E8
:10D680001420002010B50020FEF730FE002801D045
:10D69000FEF74CF9FEF7AAFD002801D0FEF746F987
:10D6A0003CDF002801D0FEF741F910BD002803D06F
:10D6B0000249C860002070470E2070478420002077
:10D6C0001CB5034901910091694660DF1CBD000053
:10D6D000E81F002070B50E4605461446142110467A
:10D6E000FDF743FD01200021208021612173267276
:10D6F0006572002D00D0A072002070BD10B5FEF73D
:10D7000007F910BDF8B5002903D08C070025002CBF
:10D7100001D00720F8BD0E4E0E4FB16072807360CD
:10D7200039680124214003D00A49254680310C6024
:10D73000094910DF002803D0002DEBD03C60F8BD74
:10D740003470FFF79FFB1620FFF7BCFEF8BD00000A
:10D750008420002000E100E0FDD6010001480078AF
:10D760007047000084200020FEB51F4C0025A768EC
:10D77000606802906846FEF7A9FF0190FFF7D4F8B1
:10D7800006460198002822D000230098616817E01F
:10D790000E680A46864202D9301A086012E0801BE1
:10D7A000F31800261660D668D169B446002E07D05B
:10D7B000FE183602360A566066469660D5611546F2
:10D7C0000029E5D128466160FFF704F906E0284604
:10D7D000FFF700F9002801D1002E02D00298FEF7D1
:10D7E000A5FE0020E070FEBD582000200120024967
:10D7F000000508607047000000E200E010B50E4B25
:10D800005968002906D002680C68A24204D8A21AFE
:10D810000A60C161586010BD0B4604E00B46C9693F
:10D82000121B002904D00C689442F7D3A41A0C6090
:10D830000260C161D86110BD582000207CB50D4642
:10D840000646002469460C706846FEF725F901A8D3
:10D8500000F0A2FB00280DD005704660684608491C
:10D860000079487068460078FEF734F9FFF7BEFF8C
:10D8700020467CBD684604240078FEF72BF9F7E7C4
:10D8800068200020F8B51D4D6C68002C34D01C4871
:10D8900000274068A968401A0602360A2068B0428C
:10D8A00018D8361AC7192246107CE46900280FD010
:10D8B00000201074EB68002B07D0916950699847DD
:10D8C000002805D0FEF732F802E0516990698847D8
:10D8D000002CE3D129786878814206D1401CC0B27F
:10D8E0006870022801D10020687004490006800D8C
:10D8F00018310F50FFF77AFFF8BD000058200020C4
:10D9000000150140F8B504462168224D89002048E1
:10D910004919086061688900491908602068FFF7A3
:10D92000D3FB6068FFF7D0FB19482168401C8900D1
:10D930004919086061688900491908600420FFF7E7
:10D940004DFA0026144F012521793869C840C007D7
:10D95000C00F02D0002E19D00FE021782846884051
:10D96000F8600420FFF73AFA2068FFF7ADFB0420C7
:10D97000FFF734FA761C092EE6DB20798540FD603E
:10D980000420FFF72BFA6068FFF79EFBF8BD00004C
:10D990000C06000000070050000500500178002927
:10D9A00007D1027901200449012A03D0002A00D1BD
:10D9B0004870704708707047F41F00201FB50B496E
:10D9C000032008600A4B6C460FCB0FC408480023A5
:10D9D000084A69460838FFF7B5FA002801D0FDF774
:10D9E000A5FF03480838FFF79DFA1FBD0C0700503C
:10D9F0000CE201009DD9010001460320CA0701D0B5
:10DA0000412040028A0700D50248490701D5014854
:10DA1000401C704701820000FFB50C4685B0002114
:10DA20000491FF21053100261F466650FF21253154
:10DA30006650FF211D316650FF21093166500546B1
:10DA40002035E11DFF31AE71FA31EE70012F0FD09C
:10DA500001220A600121216221600168002909D0A8
:10DA600014498160806803210902611848601DE043
:10DA70000222EEE7014626312330039102900097FF
:10DA800001962046079B039A029900F02CF8002883
:10DA9000F5D1E878002809D00920C0012118486C88
:10DAA0004864002802D0FFF7A7FF0490049809B04B
:10DAB000F0BD00008602000030B51C78039D944242
:10DAC00008D205221202095D8018C1611878401C35
:10DAD000187006E00121002D02D0C161002030BD88
:10DAE0004161012030BDFFB50F46097883B004467F
:10DAF000002904D1059802780C98824201D10120B6
:10DB000000E000200190FF2025300025002907D0EB
:10DB10002550FF201D302550FF200930255055E0AD
:10DB2000FF2125312046FFF709FB012600282CD1D3
:10DB3000FF211D312046FFF701FB002814D0FF20F4
:10DB40001D302550FF2125312046FFF7F7FA002828
:10DB50001BD10D9800902046059B0C9A0699FFF763
:10DB6000ABFF00283FD031E0FF2109312046FFF70D
:10DB7000E5FA00282AD0FF2009302550FF21253161
:10DB80002046FFF7DBFA002805D0FF20253025507E
:10DB900066613E701AE005990C980F78069ABC46AB
:10DBA000874213D205231B02E3189B696746D355AE
:10DBB0000A78521CD2B20A70411E8A4203D1022056
:10DBC0000102085101E0824200D02662019800283B
:10DBD0000BD0FF26053631462046FFF7AFFA002866
:10DBE00003D0A551002007B0F0BD0120FBE70000E5
:10DBF000FFB5054687B00C460020FF21109F053178
:10DC000005906050FF2125316050FF211D3160508B
:10DC1000FF2109316050012149022E46085120366A
:10DC2000B071F07001202062A060B31D00970293D4
:10DC300020460A9A0999FFF73FFF2868002807D075
:10DC40001148A860A868032109026118486018E01B
:10DC500023350A980090019729462046099B029A8D
:10DC6000FFF741FF0028F4D1F078002809D00920FF
:10DC7000C0012118486C4864002802D0FFF7BCFEA0
:10DC8000059005980BB0F0BD86020000F8B504467B
:10DC900000250320ED430002081885602546203545
:10DCA0002E79002E03D0A16841601120F8BD5807DD
:10DCB000C017401C2871180701D50620F8BDA361C4
:10DCC000C1CA0C34C1C40C3A9078287050680B2635
:10DCD0006060F60150788E19B06010780026183C0C
:10DCE00001280ED0002801D1980601D5012000E0BE
:10DCF000002068700090937852682046FFF778FF04
:10DD000005E06E70937852682046FFF785FE216823
:10DD10000029D3D12E71F8BDFF221D32002383507C
:10DD20008B8A8A68D25C8B8A5B1C8B8205210902F4
:10DD30004018C261704770B58EB005461C21684618
:10DD4000FDF713FA694608780C2108436946087004
:10DD5000002401940394049405940694287808A957
:10DD60008870022069460884601C0007000F10308C
:10DD70000794087711204877887FF9210840F72118
:10DD8000801C0840EF21084001263043694688770F
:10DD9000142109A8FDF7E9F908A8099007A80A9035
:10DDA00069468E851420CC85088668882B1D09AAB3
:10DDB000A2DF0EB070BD1FB500226B461A7019723B
:10DDC00081680191827506C8684690471FBDF0B50D
:10DDD0000C46012185B005464902FFF7B9F9032138
:10DDE00009026F180026002826D0FF212531284679
:10DDF000FFF7A9F900281FD0FF2025302E508120E1
:10DE00008000B860A07E002801D101206860022156
:10DE1000684601700920C00129180868086003904D
:10DE2000E17D68460172E0680190E675267606CCD1
:10DE30006846083C90472DE004212846FFF788F902
:10DE4000002827D0FF2109312846FFF77CF9002858
:10DE500020D021462846FFF7C9FAE07D617E88423E
:10DE600018D1207E002807D0617EE268E075206925
:10DE7000E060267666760AE0A07E002801D10120C7
:10DE8000686081208000B860E675617EE2682046A7
:10DE9000FFF70EFBFF271D3739462846FFF753F9DA
:10DEA00000280FD0A08AA17D884204D221462846AE
:10DEB000FFF732FF06E0EE51A17D002902D0204697
:10DEC000FFF779FFFF27453739462846FFF73BF92B
:10DED00000280ED0EE51A07E002801D0012028603D
:10DEE000E07D002805D0E675617EE2682046FFF7F8
:10DEF000DFFA05B0F0BD0870000A487002207047D4
:10DF000008B5FD206946087008488068002803D0DD
:10DF1000012801D0022800D1487002220448FEF7EF
:10DF200099F81420FEF740FF08BD0000E81F00200C
:10DF30007021002038B51549154A488890420FD005
:10DF40004A78144C521CD2B24A70237B934208D3B5
:10DF5000091D75DF002803D0A169002900D088477A
:10DF600038BD00254D70217C002907D03B2176DF8C
:10DF7000002803D0A169002900D0884761690029E1
:10DF8000EED068460570884738BD00004420002068
:10DF9000FFFF0000C423002010B509494B788C789E
:10DFA0005A1CD2B2944200D100220C78944201D182
:10DFB000002010BD0270486818214B43C01810BDE6
:10DFC00068200020FFB583B016460C9D0D9C1F46AF
:10DFD000022200950194039800F00CF8002807D164
:10DFE0003B461022314600950194039800F002F858
:10DFF00007B0F0BDFFB583B0074600200C9C8646F5
:10E00000268805463AE07868A900421811886846D3
:10E0100081805188C1800022694601A865DF0028FF
:10E0200039D1684601780598814226D1704600288A
:10E0300001D0002200E002222088891842180D99A0
:10E040008A4227D8714600290AD1401C80B220801C
:10E05000069A049911542088401C2080012086468D
:10E06000218806980A18694601A865DF002812D1A0
:10E07000694620880978401820806D1C3888A8429D
:10E08000C1DC704600280AD02088801B401E80B268
:10E09000FF2802D90C2007B0F0BD06998855002052
:10E0A000F9E7000004480179002902D1007B00282B
:10E0B00000D001207047000034200020FEB5114C34
:10E0C0000026089F66706D4628716971AA71EB7110
:10E0D0002F720D4D0820E8600998002801D05721C3
:10E0E00000E05621052301AA08480096FEF76EFFBE
:10E0F000002801D0FDF71AFC60780028FCD0082029
:10E10000A860FEBDF41F00200005005004E20100DD
:10E11000F0B591B0342104A8FDF727F8374E00245C
:10E12000641C322C02D0642C04D007E00E20FEF7D1
:10E13000C3FF03E000240E20FEF7AEFF0C20FEF725
:10E14000B3FF00281BD1B068012818D10720FDF7C4
:10E1500051FAC0B2322804D30E20FEF7ADFF0027DB
:10E1600049E0FFF7C1F80A20FEF71EFED8E70C20B1
:10E17000FEF79AFF002802D1B068012804D00E20D3
:10E18000FEF78AFF11B0F0BD0520FDF733FAC1B2EA
:10E1900006200391FDF72EFAC0B202900720FDF78A
:10E1A00029FA0399C0B2FD2901D3FC2103910299F8
:10E1B000FD2901D3FC210291FD2800D3FC200B4650
:10E1C0000090019721462846039AFFF777FF092020
:10E1D000FEF7EAFDFC2C02D0E41CE4B2C7E7FF2DF9
:10E1E00003D06D1CEDB20024C1E7002F02D0002047
:10E1F000B060C4E701270025F5E70000E81F002014
:10E20000001002000030004000000000010000008B
:10E210000200000000009801010000001516171808
:10E22000111213148C210020AC210020D8210020D1
:10E230001100030011C201001200030011C201000D
:10E240001300030011C201001400030011C20100F9
:10E25000A42300209ECADC240EE5A9E093F3A3B515
:10E260000000406E0000005088E20100E81F00201E
:10E27000B40000003EB501003CE301009C200020FA
:10E28000640C00004EB501000000FFFF0100020019
:10E29000010000000000000000000000000000007D
:10E2A000000000000000000000000000000000006E
:10E2B000000000000000000000000000000000005E
:10E2C000000000000000000000000000000000004E
:10E2D00000000000642300200000000084230020D0
:10E2E000000000000000000000000000000000002E
:10E2F000000000000000000000000000000000001E
:10E30000000000000000000000000000000000000D
:10E3100000000000000000000000000000000000FD
:10E3200000000000000000000000000000000000ED
:0CE3300000000000000000000024F400C9
:040000050001B0C185
:00000001FF
